{
  "abi": [
    {
      "inputs": [
        {
          "internalType": "address payable",
          "name": "_owner",
          "type": "address"
        },
        {
          "internalType": "address",
          "name": "_token_contract",
          "type": "address"
        }
      ],
      "stateMutability": "nonpayable",
      "type": "constructor"
    },
    {
      "anonymous": false,
      "inputs": [
        {
          "indexed": false,
          "internalType": "bytes32",
          "name": "requestID",
          "type": "bytes32"
        },
        {
          "indexed": false,
          "internalType": "address",
          "name": "callback",
          "type": "address"
        },
        {
          "indexed": false,
          "internalType": "uint256",
          "name": "fee",
          "type": "uint256"
        },
        {
          "indexed": false,
          "internalType": "uint256",
          "name": "id",
          "type": "uint256"
        }
      ],
      "name": "RequestFilled",
      "type": "event"
    },
    {
      "anonymous": false,
      "inputs": [
        {
          "indexed": false,
          "internalType": "bytes32",
          "name": "requestID",
          "type": "bytes32"
        },
        {
          "indexed": false,
          "internalType": "address",
          "name": "callback",
          "type": "address"
        },
        {
          "indexed": false,
          "internalType": "uint256",
          "name": "fee",
          "type": "uint256"
        },
        {
          "indexed": false,
          "internalType": "uint256",
          "name": "id",
          "type": "uint256"
        }
      ],
      "name": "RequestFilledError",
      "type": "event"
    },
    {
      "anonymous": false,
      "inputs": [
        {
          "indexed": true,
          "internalType": "address",
          "name": "by",
          "type": "address"
        },
        {
          "indexed": false,
          "internalType": "uint256",
          "name": "amount",
          "type": "uint256"
        },
        {
          "indexed": false,
          "internalType": "uint256",
          "name": "period",
          "type": "uint256"
        },
        {
          "indexed": false,
          "internalType": "uint256",
          "name": "token",
          "type": "uint256"
        },
        {
          "indexed": false,
          "internalType": "uint256",
          "name": "total_token",
          "type": "uint256"
        }
      ],
      "name": "StakePaidOut",
      "type": "event"
    },
    {
      "inputs": [
        {
          "internalType": "address",
          "name": "initiator",
          "type": "address"
        }
      ],
      "name": "cancel_stake",
      "outputs": [],
      "stateMutability": "nonpayable",
      "type": "function"
    },
    {
      "inputs": [
        {
          "internalType": "address",
          "name": "initiator",
          "type": "address"
        }
      ],
      "name": "cancel_stake_withdraw",
      "outputs": [],
      "stateMutability": "nonpayable",
      "type": "function"
    },
    {
      "inputs": [],
      "name": "completedRequests",
      "outputs": [
        {
          "internalType": "uint256",
          "name": "",
          "type": "uint256"
        }
      ],
      "stateMutability": "view",
      "type": "function"
    },
    {
      "inputs": [
        {
          "internalType": "bytes8",
          "name": "_requestID",
          "type": "bytes8"
        },
        {
          "internalType": "address",
          "name": "callback",
          "type": "address"
        },
        {
          "internalType": "uint256",
          "name": "_expire",
          "type": "uint256"
        },
        {
          "internalType": "uint32",
          "name": "max_gas",
          "type": "uint32"
        }
      ],
      "name": "create_request",
      "outputs": [],
      "stateMutability": "payable",
      "type": "function"
    },
    {
      "inputs": [
        {
          "internalType": "bytes8",
          "name": "_requestID",
          "type": "bytes8"
        },
        {
          "internalType": "address",
          "name": "callback",
          "type": "address"
        },
        {
          "internalType": "uint256",
          "name": "_expire",
          "type": "uint256"
        },
        {
          "internalType": "uint32",
          "name": "max_gas",
          "type": "uint32"
        },
        {
          "internalType": "uint256",
          "name": "_data",
          "type": "uint256"
        },
        {
          "internalType": "uint256",
          "name": "_data_passthrough",
          "type": "uint256"
        }
      ],
      "name": "create_request_with_data",
      "outputs": [],
      "stateMutability": "payable",
      "type": "function"
    },
    {
      "inputs": [
        {
          "internalType": "bytes8",
          "name": "_requestID",
          "type": "bytes8"
        },
        {
          "internalType": "uint256",
          "name": "value",
          "type": "uint256"
        },
        {
          "internalType": "uint256",
          "name": "i",
          "type": "uint256"
        }
      ],
      "name": "fillRequest",
      "outputs": [],
      "stateMutability": "nonpayable",
      "type": "function"
    },
    {
      "inputs": [],
      "name": "get_requests",
      "outputs": [
        {
          "components": [
            {
              "internalType": "bytes8",
              "name": "requestID",
              "type": "bytes8"
            },
            {
              "internalType": "uint64",
              "name": "fee",
              "type": "uint64"
            },
            {
              "internalType": "uint64",
              "name": "expiration",
              "type": "uint64"
            },
            {
              "internalType": "uint32",
              "name": "id",
              "type": "uint32"
            },
            {
              "internalType": "uint32",
              "name": "max_gas",
              "type": "uint32"
            },
            {
              "internalType": "address",
              "name": "callback",
              "type": "address"
            },
            {
              "internalType": "uint256",
              "name": "data",
              "type": "uint256"
            },
            {
              "internalType": "uint256",
              "name": "data_passthrough",
              "type": "uint256"
            }
          ],
          "internalType": "struct AcriaNode.request[]",
          "name": "",
          "type": "tuple[]"
        }
      ],
      "stateMutability": "view",
      "type": "function"
    },
    {
      "inputs": [
        {
          "internalType": "uint256",
          "name": "period",
          "type": "uint256"
        }
      ],
      "name": "get_total_stake",
      "outputs": [
        {
          "internalType": "uint256",
          "name": "",
          "type": "uint256"
        }
      ],
      "stateMutability": "view",
      "type": "function"
    },
    {
      "inputs": [],
      "name": "get_withdrawable",
      "outputs": [
        {
          "internalType": "uint256",
          "name": "",
          "type": "uint256"
        }
      ],
      "stateMutability": "view",
      "type": "function"
    },
    {
      "inputs": [],
      "name": "last_staker_added",
      "outputs": [
        {
          "internalType": "uint256",
          "name": "",
          "type": "uint256"
        }
      ],
      "stateMutability": "view",
      "type": "function"
    },
    {
      "inputs": [],
      "name": "owner",
      "outputs": [
        {
          "internalType": "address payable",
          "name": "",
          "type": "address"
        }
      ],
      "stateMutability": "view",
      "type": "function"
    },
    {
      "inputs": [
        {
          "internalType": "address",
          "name": "initiator",
          "type": "address"
        }
      ],
      "name": "payout_stakes",
      "outputs": [],
      "stateMutability": "nonpayable",
      "type": "function"
    },
    {
      "inputs": [
        {
          "internalType": "uint256",
          "name": "",
          "type": "uint256"
        }
      ],
      "name": "period_staker",
      "outputs": [
        {
          "internalType": "uint256",
          "name": "",
          "type": "uint256"
        }
      ],
      "stateMutability": "view",
      "type": "function"
    },
    {
      "inputs": [],
      "name": "previous_last_staker_added",
      "outputs": [
        {
          "internalType": "uint256",
          "name": "",
          "type": "uint256"
        }
      ],
      "stateMutability": "view",
      "type": "function"
    },
    {
      "inputs": [
        {
          "internalType": "uint256",
          "name": "id",
          "type": "uint256"
        }
      ],
      "name": "pump_fee",
      "outputs": [],
      "stateMutability": "payable",
      "type": "function"
    },
    {
      "inputs": [
        {
          "internalType": "address",
          "name": "",
          "type": "address"
        }
      ],
      "name": "staker",
      "outputs": [
        {
          "internalType": "uint256",
          "name": "",
          "type": "uint256"
        }
      ],
      "stateMutability": "view",
      "type": "function"
    },
    {
      "inputs": [
        {
          "internalType": "address",
          "name": "",
          "type": "address"
        }
      ],
      "name": "staker_stake",
      "outputs": [
        {
          "internalType": "uint256",
          "name": "",
          "type": "uint256"
        }
      ],
      "stateMutability": "view",
      "type": "function"
    },
    {
      "inputs": [
        {
          "internalType": "address",
          "name": "initiator",
          "type": "address"
        },
        {
          "internalType": "uint256",
          "name": "balance",
          "type": "uint256"
        }
      ],
      "name": "start_stake",
      "outputs": [],
      "stateMutability": "nonpayable",
      "type": "function"
    },
    {
      "inputs": [],
      "name": "token_contract",
      "outputs": [
        {
          "internalType": "address",
          "name": "",
          "type": "address"
        }
      ],
      "stateMutability": "view",
      "type": "function"
    },
    {
      "inputs": [],
      "name": "withdraw",
      "outputs": [],
      "stateMutability": "nonpayable",
      "type": "function"
    },
    {
      "inputs": [
        {
          "internalType": "uint256",
          "name": "",
          "type": "uint256"
        }
      ],
      "name": "withdrawable_stake",
      "outputs": [
        {
          "internalType": "uint256",
          "name": "",
          "type": "uint256"
        }
      ],
      "stateMutability": "view",
      "type": "function"
    }
  ],
  "bytecode": "60e060405260006001556000600255600060075560006008553480156200002557600080fd5b50604051620020043803806200200483398101604081905262000048916200006d565b6001600160601b0319606092831b811660a05233831b60c052911b16608052620000c4565b6000806040838503121562000080578182fd5b82516200008d81620000ab565b6020840151909250620000a081620000ab565b809150509250929050565b6001600160a01b0381168114620000c157600080fd5b50565b60805160601c60a05160601c60c05160601c611ee76200011d60003960005050600081816102b40152818161040a01528181610bb10152610c37015260008181610300015281816114f101526117930152611ee76000f3fe60806040526004361061012a5760003560e01c806375ad5dbe116100ab578063c2927d851161006f578063c2927d8514610322578063e04161791461034f578063e19325381461036f578063f7ca0d661461038f578063fb10c7b1146103a5578063fcf6c903146103d25761012a565b806375ad5dbe1461024257806382e4eda4146102625780638d4b32231461028f5780638da5cb5b146102a25780639563dceb146102ee5761012a565b806364245d01116100f257806364245d01146101c75780636dd4e3ac146101dc5780636e5ab542146101fc57806370762d2f1461020f5780637568e9d2146102225761012a565b806308f438f71461012f57806309468b4c1461015857806315b3c6eb1461017a5780633ccfd60b14610190578063455bfbf2146101a5575b600080fd5b34801561013b57600080fd5b5061014560015481565b6040519081526020015b60405180910390f35b34801561016457600080fd5b50610178610173366004611c1b565b6103ff565b005b34801561018657600080fd5b5061014560075481565b34801561019c57600080fd5b50610178610ba6565b3480156101b157600080fd5b506101ba610c83565b60405161014f9190611c9e565b3480156101d357600080fd5b50600254610145565b3480156101e857600080fd5b506101786101f7366004611b27565b610d65565b61017861020a366004611c4d565b610ee8565b61017861021d366004611bbd565b61102c565b34801561022e57600080fd5b5061017861023d366004611b27565b61125a565b34801561024e57600080fd5b5061014561025d366004611c4d565b6112a5565b34801561026e57600080fd5b5061014561027d366004611b27565b60056020526000908152604090205481565b61017861029d366004611b71565b6112da565b3480156102ae57600080fd5b506102d67f000000000000000000000000000000000000000000000000000000000000000081565b6040516001600160a01b03909116815260200161014f565b3480156102fa57600080fd5b506102d67f000000000000000000000000000000000000000000000000000000000000000081565b34801561032e57600080fd5b5061014561033d366004611c4d565b60036020526000908152604090205481565b34801561035b57600080fd5b5061017861036a366004611b27565b6114e6565b34801561037b57600080fd5b5061017861038a366004611b48565b611788565b34801561039b57600080fd5b5061014560085481565b3480156103b157600080fd5b506101456103c0366004611c4d565b60046020526000908152604090205481565b3480156103de57600080fd5b506101456103ed366004611b27565b60066020526000908152604090205481565b336001600160a01b037f0000000000000000000000000000000000000000000000000000000000000000161461047c5760405162461bcd60e51b815260206004820152601c60248201527f5265737472696374656420746f20636f6e7472616374206f776e65720000000060448201526064015b60405180910390fd5b826001600160c01b031916600082815481106104a857634e487b7160e01b600052603260045260246000fd5b600091825260209091206004909102015460c01b6001600160c01b031916146104d057600080fd5b60006004816104e16103e843611dcb565b81526020019081526020016000205460001415610568576105046103e843611dcb565b61050f906001611d88565b6007541415610540576008541561053b576008546000908152600460205260409020541561053b575060015b610563565b600754156105635760075460009081526004602052604090205415610563575060015b61056c565b5060015b436000838154811061058e57634e487b7160e01b600052603260045260246000fd5b6000918252602090912060049091020154600160801b90046001600160401b031610610a695760008083815481106105d657634e487b7160e01b600052603260045260246000fd5b6000918252602082206001600490920201015481546001600160a01b039091169250600a9082908690811061061b57634e487b7160e01b600052603260045260246000fd5b60009182526020909120600490910201546106469190600160401b90046001600160401b0316611ddf565b610651906008611e24565b6001600160401b03169050600080858154811061067e57634e487b7160e01b600052603260045260246000fd5b9060005260206000209060040201600001601c9054906101000a900463ffffffff16905060008086815481106106c457634e487b7160e01b600052603260045260246000fd5b906000526020600020906004020160020154905060008087815481106106fa57634e487b7160e01b600052603260045260246000fd5b9060005260206000209060040201600301549050851561079957836000888154811061073657634e487b7160e01b600052603260045260246000fd5b60009182526020909120600490910201546107619190600160401b90046001600160401b0316611e53565b600360006107716103e843611dcb565b8152602001908152602001600020600082825461078e9190611d88565b909155506107f39050565b83600088815481106107bb57634e487b7160e01b600052603260045260246000fd5b60009182526020909120600490910201546107e69190600160401b90046001600160401b0316611e53565b6107f09085611d88565b93505b83600260008282546108059190611d88565b9091555050600080548890811061082c57634e487b7160e01b600052603260045260246000fd5b600091825260208220600490910201818155600180820180546001600160a01b031916905560028201839055600390910182905580549161086c83611e6a565b91905055506000826000148015610881575081155b1561092d57856001600160a01b03168463ffffffff168a6040516024016108aa91815260200190565b60408051601f198184030181529181526020820180516001600160e01b03166313e0b21760e11b179052516108df9190611c65565b60006040518083038160008787f1925050503d806000811461091d576040519150601f19603f3d011682016040523d82523d6000602084013e610922565b606091505b5050809150506109d9565b604051602481018a905260448101849052606481018390526001600160a01b0387169063ffffffff86169060840160408051601f198184030181529181526020820180516001600160e01b03166305d7f70360e21b179052516109909190611c65565b60006040518083038160008787f1925050503d80600081146109ce576040519150601f19603f3d011682016040523d82523d6000602084013e6109d3565b606091505b50909150505b80610a20577f86abf6250ebaadbb42dedf0794f338470dfba82eed923b669f0fce48a5ce5abb8a87878b604051610a139493929190611d58565b60405180910390a1610a5e565b7f910c973544a08bc7a636ea9436726896a35fb16763f6a536991139fa41a7f0e58a87878b604051610a559493929190611d58565b60405180910390a15b505050505050610ba0565b8015610ae95760008281548110610a9057634e487b7160e01b600052603260045260246000fd5b600091825260208220600490910201546001600160401b03600160401b9091041690600390610ac16103e843611dcb565b81526020019081526020016000206000828254610ade9190611d88565b90915550610b4f9050565b60008281548110610b0a57634e487b7160e01b600052603260045260246000fd5b906000526020600020906004020160000160089054906101000a90046001600160401b03166001600160401b031660026000828254610b499190611d88565b90915550505b60008281548110610b7057634e487b7160e01b600052603260045260246000fd5b6000918252602082206004909102018181556001810180546001600160a01b031916905560028101829055600301555b50505050565b336001600160a01b037f00000000000000000000000000000000000000000000000000000000000000001614610c1e5760405162461bcd60e51b815260206004820152601c60248201527f5265737472696374656420746f20636f6e7472616374206f776e6572000000006044820152606401610473565b6002805460009182905560405190916001600160a01b037f0000000000000000000000000000000000000000000000000000000000000000169183156108fc0291849190818181858888f19350505050158015610c7f573d6000803e3d6000fd5b5050565b60606000805480602002602001604051908101604052809291908181526020016000905b82821015610d5c576000848152602090819020604080516101008101825260048602909201805460c081811b6001600160c01b0319168552600160401b82046001600160401b0390811686880152600160801b83041693850193909352600160c01b810463ffffffff9081166060860152600160e01b9091041660808401526001808201546001600160a01b031660a08501526002820154928401929092526003015460e08301529083529092019101610ca7565b50505050905090565b6001600160a01b038116600090815260056020526040902054610db95760405162461bcd60e51b815260206004820152600c60248201526b2737ba10309039ba30b5b2b960a11b6044820152606401610473565b6001600160a01b0381166000908152600560205260409020546001610de06103e843611dcb565b610dea9190611e53565b1015610e2f5760405162461bcd60e51b8152602060048201526014602482015273139bc8199d5b1b0818da58db19481cdd185ad95960621b6044820152606401610473565b6001600160a01b0381166000908152600560205260408120545b6001610e576103e843611dcb565b610e619190611e53565b8111610e8f57610e718184611965565b610e7b9083611d88565b915080610e8781611e6a565b915050610e49565b50610e9c6103e843611dcb565b6001600160a01b038316600081815260056020526040808220939093559151909183156108fc02918491818181858888f19350505050158015610ee3573d6000803e3d6000fd5b505050565b670de0b6b3a76400003410610efc57600080fd5b60003411610f0957600080fd5b670de0b6b3a764000060008281548110610f3357634e487b7160e01b600052603260045260246000fd5b6000918252602090912060049091020154610f5e90600160401b90046001600160401b031634611d88565b10610f6857600080fd5b60008181548110610f8957634e487b7160e01b600052603260045260246000fd5b6000918252602090912060049091020154600160801b90046001600160401b0316610fb357600080fd5b3460008281548110610fd557634e487b7160e01b600052603260045260246000fd5b600091825260209091206004909102018054600890611005908490600160401b90046001600160401b0316611da0565b92506101000a8154816001600160401b0302191690836001600160401b0316021790555050565b6064841161103957600080fd5b670de0b6b3a7640000341061104d57600080fd5b620f4240841061105c57600080fd5b6207a1208363ffffffff161061107157600080fd5b611079611aa0565b6001600160c01b0319871681526001600160401b033416602082015261109f8543611d88565b6001600160401b031660408201526001600160a01b03861660a082015260005463ffffffff90811660608301528416608082015282156110e15760c081018390525b81156110ef5760e081018290525b6000805460018101825590805281517f290decd9548b62a8d60345a988386fc84ba6bc95484008f6362f93160ef3e56360049092029182018054602085015160408601516060870151608088015167ffffffffffffffff1990941660c096871c1767ffffffffffffffff60401b1916600160401b6001600160401b03948516021767ffffffffffffffff60801b1916600160801b93909216929092021763ffffffff60c01b1916600160c01b63ffffffff92831602176001600160e01b0316600160e01b919092160217905560a08301517f290decd9548b62a8d60345a988386fc84ba6bc95484008f6362f93160ef3e564830180546001600160a01b0319166001600160a01b039092169190911790558201517f290decd9548b62a8d60345a988386fc84ba6bc95484008f6362f93160ef3e56582015560e0909101517f290decd9548b62a8d60345a988386fc84ba6bc95484008f6362f93160ef3e56690910155505050505050565b6001600160a01b03811660009081526005602052604090205460016112816103e843611dcb565b61128b9190611e53565b106112995761129981610d65565b6112a2816114e6565b50565b6000816112c457506007546000908152600460205260409020546112d5565b506000818152600460205260409020545b919050565b606482116112e757600080fd5b670de0b6b3a764000034106112fb57600080fd5b620f4240821061130a57600080fd5b6207a1208163ffffffff161061131f57600080fd5b611327611aa0565b6001600160c01b0319851681526001600160401b033416602082015261134d8343611d88565b6001600160401b03908116604083019081526001600160a01b0395861660a084019081526000805463ffffffff808216606088019081529781166080880190815260018301845592805286517f290decd9548b62a8d60345a988386fc84ba6bc95484008f6362f93160ef3e5636004909302928301805460208a015197519a51955167ffffffffffffffff1990911660c093841c1767ffffffffffffffff60401b1916600160401b988a16989098029790971767ffffffffffffffff60801b1916600160801b9a909816999099029690961763ffffffff60c01b1916600160c01b93821693909302929092176001600160e01b0316600160e01b94909216939093021790945592517f290decd9548b62a8d60345a988386fc84ba6bc95484008f6362f93160ef3e564840180546001600160a01b0319169190961617909455928301517f290decd9548b62a8d60345a988386fc84ba6bc95484008f6362f93160ef3e56582015560e0909201517f290decd9548b62a8d60345a988386fc84ba6bc95484008f6362f93160ef3e566909201919091555050565b336001600160a01b037f0000000000000000000000000000000000000000000000000000000000000000161461151b57600080fd5b6001600160a01b03811660009081526005602052604090205461153d57600080fd5b600061154b6103e843611dcb565b611556906001611d88565b9050600460006115686103e843611dcb565b81526020019081526020016000205460001415611604578060075414156115c957600854156115c4576008546000908152600460208190526040822054916115b26103e843611dcb565b81526020810191909152604001600020555b611604565b60075415611604576007546000908152600460208190526040822054916115f26103e843611dcb565b81526020810191909152604001600020555b600081815260046020526040902054611649576007541580159061162a57508060075414155b1561164957600754600090815260046020526040808220548383529120555b806007541461165d57600780546008558190555b6001600160a01b03821660009081526006602090815260408083205484845260049092528220805491928392611694908490611e53565b909155506116a59050600183611e53565b6001600160a01b0384166000908152600560205260409020541161175f5780600460006116d3600186611e53565b815260200190815260200160002060008282546116f09190611e53565b909155506117019050600183611e53565b60085560046000611713600185611e53565b8152602001908152602001600020546000141561175f5760036000611739600185611e53565b815260200190815260200160002054600260008282546117599190611d88565b90915550505b50506001600160a01b031660009081526006602090815260408083208390556005909152812055565b336001600160a01b037f000000000000000000000000000000000000000000000000000000000000000016146118005760405162461bcd60e51b815260206004820152601b60248201527f496e697469617465642062792077726f6e6720636f6e747261637400000000006044820152606401610473565b6001600160a01b038216600090815260056020526040902054156118585760405162461bcd60e51b815260206004820152600f60248201526e416c7265616479207374616b696e6760881b6044820152606401610473565b600081116118945760405162461bcd60e51b81526020600482015260096024820152684e6f20546f6b656e7360b81b6044820152606401610473565b60006118a26103e843611dcb565b6118ad906001611d88565b6001600160a01b0384166000908152600560209081526040808320849055838352600490915290205490915061190f57600754158015906118f057508060075414155b1561190f57600754600090815260046020526040808220548383529120555b60008181526004602052604081208054849283929161192f908490611d88565b90915550506001600160a01b03841660009081526006602052604090208190556007548214610ba0575060078054600855555050565b6000828152600460205260408120546119cd5760046000611987600186611e53565b8152602001908152602001600020546000146119cd57600460006119ac600186611e53565b81526020808201929092526040908101600090812054868252600490935220555b60008381526003602052604090205415611a96576001600160a01b038216600090815260066020908152604080832054868452600483528184205460039093529083205490929190611a20908490611e05565b611a2a9190611dcb565b600086815260046020908152604091829020548251848152918201899052818301869052606082015290519192506001600160a01b038616917fc652e5a6fbf70db834261cc5fa689d2b62011ae542c2c79939010ded9fdca2a79181900360800190a29150611a9a9050565b5060005b92915050565b6040805161010081018252600080825260208201819052918101829052606081018290526080810182905260a0810182905260c0810182905260e081019190915290565b80356001600160a01b03811681146112d557600080fd5b80356001600160c01b0319811681146112d557600080fd5b803563ffffffff811681146112d557600080fd5b600060208284031215611b38578081fd5b611b4182611ae4565b9392505050565b60008060408385031215611b5a578081fd5b611b6383611ae4565b946020939093013593505050565b60008060008060808587031215611b86578182fd5b611b8f85611afb565b9350611b9d60208601611ae4565b925060408501359150611bb260608601611b13565b905092959194509250565b60008060008060008060c08789031215611bd5578182fd5b611bde87611afb565b9550611bec60208801611ae4565b945060408701359350611c0160608801611b13565b92506080870135915060a087013590509295509295509295565b600080600060608486031215611c2f578283fd5b611c3884611afb565b95602085013595506040909401359392505050565b600060208284031215611c5e578081fd5b5035919050565b60008251815b81811015611c855760208186018101518583015201611c6b565b81811115611c935782828501525b509190910192915050565b602080825282518282018190526000919060409081850190868401855b82811015611d4b57815180516001600160c01b0319168552868101516001600160401b039081168887015286820151168686015260608082015163ffffffff908116918701919091526080808301519091169086015260a0808201516001600160a01b03169086015260c0808201519086015260e090810151908501526101009093019290850190600101611cbb565b5091979650505050505050565b6001600160c01b03199490941684526001600160a01b039290921660208401526040830152606082015260800190565b60008219821115611d9b57611d9b611e85565b500190565b60006001600160401b03808316818516808303821115611dc257611dc2611e85565b01949350505050565b600082611dda57611dda611e9b565b500490565b60006001600160401b0380841680611df957611df9611e9b565b92169190910492915050565b6000816000190483118215151615611e1f57611e1f611e85565b500290565b60006001600160401b0380831681851681830481118215151615611e4a57611e4a611e85565b02949350505050565b600082821015611e6557611e65611e85565b500390565b6000600019821415611e7e57611e7e611e85565b5060010190565b634e487b7160e01b600052601160045260246000fd5b634e487b7160e01b600052601260045260246000fdfea26469706673582212202c1414a819fd8da61dd953e87dad3363f4e19b5163e8b14cedc90e4efb4f898364736f6c63430008020033",
  "bytecodeSha1": "e9a5b7f9233b1bd5622c8b3225b00fb6e270f9be",
  "compiler": {
    "evm_version": "istanbul",
    "optimizer": {
      "enabled": true,
      "runs": 200
    },
    "version": "0.8.2+commit.661d1103"
  },
  "contractName": "AcriaNode",
  "language": "Solidity",
  "natspec": {
    "kind": "dev",
    "methods": {},
    "version": 1
  },
  "opcodes": "PUSH1 0x80 PUSH1 0x40 MSTORE PUSH1 0x4 CALLDATASIZE LT PUSH2 0x12A JUMPI PUSH1 0x0 CALLDATALOAD PUSH1 0xE0 SHR DUP1 PUSH4 0x75AD5DBE GT PUSH2 0xAB JUMPI DUP1 PUSH4 0xC2927D85 GT PUSH2 0x6F JUMPI DUP1 PUSH4 0xC2927D85 EQ PUSH2 0x322 JUMPI DUP1 PUSH4 0xE0416179 EQ PUSH2 0x34F JUMPI DUP1 PUSH4 0xE1932538 EQ PUSH2 0x36F JUMPI DUP1 PUSH4 0xF7CA0D66 EQ PUSH2 0x38F JUMPI DUP1 PUSH4 0xFB10C7B1 EQ PUSH2 0x3A5 JUMPI DUP1 PUSH4 0xFCF6C903 EQ PUSH2 0x3D2 JUMPI PUSH2 0x12A JUMP JUMPDEST DUP1 PUSH4 0x75AD5DBE EQ PUSH2 0x242 JUMPI DUP1 PUSH4 0x82E4EDA4 EQ PUSH2 0x262 JUMPI DUP1 PUSH4 0x8D4B3223 EQ PUSH2 0x28F JUMPI DUP1 PUSH4 0x8DA5CB5B EQ PUSH2 0x2A2 JUMPI DUP1 PUSH4 0x9563DCEB EQ PUSH2 0x2EE JUMPI PUSH2 0x12A JUMP JUMPDEST DUP1 PUSH4 0x64245D01 GT PUSH2 0xF2 JUMPI DUP1 PUSH4 0x64245D01 EQ PUSH2 0x1C7 JUMPI DUP1 PUSH4 0x6DD4E3AC EQ PUSH2 0x1DC JUMPI DUP1 PUSH4 0x6E5AB542 EQ PUSH2 0x1FC JUMPI DUP1 PUSH4 0x70762D2F EQ PUSH2 0x20F JUMPI DUP1 PUSH4 0x7568E9D2 EQ PUSH2 0x222 JUMPI PUSH2 0x12A JUMP JUMPDEST DUP1 PUSH4 0x8F438F7 EQ PUSH2 0x12F JUMPI DUP1 PUSH4 0x9468B4C EQ PUSH2 0x158 JUMPI DUP1 PUSH4 0x15B3C6EB EQ PUSH2 0x17A JUMPI DUP1 PUSH4 0x3CCFD60B EQ PUSH2 0x190 JUMPI DUP1 PUSH4 0x455BFBF2 EQ PUSH2 0x1A5 JUMPI JUMPDEST PUSH1 0x0 DUP1 REVERT JUMPDEST CALLVALUE DUP1 ISZERO PUSH2 0x13B JUMPI PUSH1 0x0 DUP1 REVERT JUMPDEST POP PUSH2 0x145 PUSH1 0x1 SLOAD DUP2 JUMP JUMPDEST PUSH1 0x40 MLOAD SWAP1 DUP2 MSTORE PUSH1 0x20 ADD JUMPDEST PUSH1 0x40 MLOAD DUP1 SWAP2 SUB SWAP1 RETURN JUMPDEST CALLVALUE DUP1 ISZERO PUSH2 0x164 JUMPI PUSH1 0x0 DUP1 REVERT JUMPDEST POP PUSH2 0x178 PUSH2 0x173 CALLDATASIZE PUSH1 0x4 PUSH2 0x1C1B JUMP JUMPDEST PUSH2 0x3FF JUMP JUMPDEST STOP JUMPDEST CALLVALUE DUP1 ISZERO PUSH2 0x186 JUMPI PUSH1 0x0 DUP1 REVERT JUMPDEST POP PUSH2 0x145 PUSH1 0x7 SLOAD DUP2 JUMP JUMPDEST CALLVALUE DUP1 ISZERO PUSH2 0x19C JUMPI PUSH1 0x0 DUP1 REVERT JUMPDEST POP PUSH2 0x178 PUSH2 0xBA6 JUMP JUMPDEST CALLVALUE DUP1 ISZERO PUSH2 0x1B1 JUMPI PUSH1 0x0 DUP1 REVERT JUMPDEST POP PUSH2 0x1BA PUSH2 0xC83 JUMP JUMPDEST PUSH1 0x40 MLOAD PUSH2 0x14F SWAP2 SWAP1 PUSH2 0x1C9E JUMP JUMPDEST CALLVALUE DUP1 ISZERO PUSH2 0x1D3 JUMPI PUSH1 0x0 DUP1 REVERT JUMPDEST POP PUSH1 0x2 SLOAD PUSH2 0x145 JUMP JUMPDEST CALLVALUE DUP1 ISZERO PUSH2 0x1E8 JUMPI PUSH1 0x0 DUP1 REVERT JUMPDEST POP PUSH2 0x178 PUSH2 0x1F7 CALLDATASIZE PUSH1 0x4 PUSH2 0x1B27 JUMP JUMPDEST PUSH2 0xD65 JUMP JUMPDEST PUSH2 0x178 PUSH2 0x20A CALLDATASIZE PUSH1 0x4 PUSH2 0x1C4D JUMP JUMPDEST PUSH2 0xEE8 JUMP JUMPDEST PUSH2 0x178 PUSH2 0x21D CALLDATASIZE PUSH1 0x4 PUSH2 0x1BBD JUMP JUMPDEST PUSH2 0x102C JUMP JUMPDEST CALLVALUE DUP1 ISZERO PUSH2 0x22E JUMPI PUSH1 0x0 DUP1 REVERT JUMPDEST POP PUSH2 0x178 PUSH2 0x23D CALLDATASIZE PUSH1 0x4 PUSH2 0x1B27 JUMP JUMPDEST PUSH2 0x125A JUMP JUMPDEST CALLVALUE DUP1 ISZERO PUSH2 0x24E JUMPI PUSH1 0x0 DUP1 REVERT JUMPDEST POP PUSH2 0x145 PUSH2 0x25D CALLDATASIZE PUSH1 0x4 PUSH2 0x1C4D JUMP JUMPDEST PUSH2 0x12A5 JUMP JUMPDEST CALLVALUE DUP1 ISZERO PUSH2 0x26E JUMPI PUSH1 0x0 DUP1 REVERT JUMPDEST POP PUSH2 0x145 PUSH2 0x27D CALLDATASIZE PUSH1 0x4 PUSH2 0x1B27 JUMP JUMPDEST PUSH1 0x5 PUSH1 0x20 MSTORE PUSH1 0x0 SWAP1 DUP2 MSTORE PUSH1 0x40 SWAP1 KECCAK256 SLOAD DUP2 JUMP JUMPDEST PUSH2 0x178 PUSH2 0x29D CALLDATASIZE PUSH1 0x4 PUSH2 0x1B71 JUMP JUMPDEST PUSH2 0x12DA JUMP JUMPDEST CALLVALUE DUP1 ISZERO PUSH2 0x2AE JUMPI PUSH1 0x0 DUP1 REVERT JUMPDEST POP PUSH2 0x2D6 PUSH32 0x0 DUP2 JUMP JUMPDEST PUSH1 0x40 MLOAD PUSH1 0x1 PUSH1 0x1 PUSH1 0xA0 SHL SUB SWAP1 SWAP2 AND DUP2 MSTORE PUSH1 0x20 ADD PUSH2 0x14F JUMP JUMPDEST CALLVALUE DUP1 ISZERO PUSH2 0x2FA JUMPI PUSH1 0x0 DUP1 REVERT JUMPDEST POP PUSH2 0x2D6 PUSH32 0x0 DUP2 JUMP JUMPDEST CALLVALUE DUP1 ISZERO PUSH2 0x32E JUMPI PUSH1 0x0 DUP1 REVERT JUMPDEST POP PUSH2 0x145 PUSH2 0x33D CALLDATASIZE PUSH1 0x4 PUSH2 0x1C4D JUMP JUMPDEST PUSH1 0x3 PUSH1 0x20 MSTORE PUSH1 0x0 SWAP1 DUP2 MSTORE PUSH1 0x40 SWAP1 KECCAK256 SLOAD DUP2 JUMP JUMPDEST CALLVALUE DUP1 ISZERO PUSH2 0x35B JUMPI PUSH1 0x0 DUP1 REVERT JUMPDEST POP PUSH2 0x178 PUSH2 0x36A CALLDATASIZE PUSH1 0x4 PUSH2 0x1B27 JUMP JUMPDEST PUSH2 0x14E6 JUMP JUMPDEST CALLVALUE DUP1 ISZERO PUSH2 0x37B JUMPI PUSH1 0x0 DUP1 REVERT JUMPDEST POP PUSH2 0x178 PUSH2 0x38A CALLDATASIZE PUSH1 0x4 PUSH2 0x1B48 JUMP JUMPDEST PUSH2 0x1788 JUMP JUMPDEST CALLVALUE DUP1 ISZERO PUSH2 0x39B JUMPI PUSH1 0x0 DUP1 REVERT JUMPDEST POP PUSH2 0x145 PUSH1 0x8 SLOAD DUP2 JUMP JUMPDEST CALLVALUE DUP1 ISZERO PUSH2 0x3B1 JUMPI PUSH1 0x0 DUP1 REVERT JUMPDEST POP PUSH2 0x145 PUSH2 0x3C0 CALLDATASIZE PUSH1 0x4 PUSH2 0x1C4D JUMP JUMPDEST PUSH1 0x4 PUSH1 0x20 MSTORE PUSH1 0x0 SWAP1 DUP2 MSTORE PUSH1 0x40 SWAP1 KECCAK256 SLOAD DUP2 JUMP JUMPDEST CALLVALUE DUP1 ISZERO PUSH2 0x3DE JUMPI PUSH1 0x0 DUP1 REVERT JUMPDEST POP PUSH2 0x145 PUSH2 0x3ED CALLDATASIZE PUSH1 0x4 PUSH2 0x1B27 JUMP JUMPDEST PUSH1 0x6 PUSH1 0x20 MSTORE PUSH1 0x0 SWAP1 DUP2 MSTORE PUSH1 0x40 SWAP1 KECCAK256 SLOAD DUP2 JUMP JUMPDEST CALLER PUSH1 0x1 PUSH1 0x1 PUSH1 0xA0 SHL SUB PUSH32 0x0 AND EQ PUSH2 0x47C JUMPI PUSH1 0x40 MLOAD PUSH3 0x461BCD PUSH1 0xE5 SHL DUP2 MSTORE PUSH1 0x20 PUSH1 0x4 DUP3 ADD MSTORE PUSH1 0x1C PUSH1 0x24 DUP3 ADD MSTORE PUSH32 0x5265737472696374656420746F20636F6E7472616374206F776E657200000000 PUSH1 0x44 DUP3 ADD MSTORE PUSH1 0x64 ADD JUMPDEST PUSH1 0x40 MLOAD DUP1 SWAP2 SUB SWAP1 REVERT JUMPDEST DUP3 PUSH1 0x1 PUSH1 0x1 PUSH1 0xC0 SHL SUB NOT AND PUSH1 0x0 DUP3 DUP2 SLOAD DUP2 LT PUSH2 0x4A8 JUMPI PUSH4 0x4E487B71 PUSH1 0xE0 SHL PUSH1 0x0 MSTORE PUSH1 0x32 PUSH1 0x4 MSTORE PUSH1 0x24 PUSH1 0x0 REVERT JUMPDEST PUSH1 0x0 SWAP2 DUP3 MSTORE PUSH1 0x20 SWAP1 SWAP2 KECCAK256 PUSH1 0x4 SWAP1 SWAP2 MUL ADD SLOAD PUSH1 0xC0 SHL PUSH1 0x1 PUSH1 0x1 PUSH1 0xC0 SHL SUB NOT AND EQ PUSH2 0x4D0 JUMPI PUSH1 0x0 DUP1 REVERT JUMPDEST PUSH1 0x0 PUSH1 0x4 DUP2 PUSH2 0x4E1 PUSH2 0x3E8 NUMBER PUSH2 0x1DCB JUMP JUMPDEST DUP2 MSTORE PUSH1 0x20 ADD SWAP1 DUP2 MSTORE PUSH1 0x20 ADD PUSH1 0x0 KECCAK256 SLOAD PUSH1 0x0 EQ ISZERO PUSH2 0x568 JUMPI PUSH2 0x504 PUSH2 0x3E8 NUMBER PUSH2 0x1DCB JUMP JUMPDEST PUSH2 0x50F SWAP1 PUSH1 0x1 PUSH2 0x1D88 JUMP JUMPDEST PUSH1 0x7 SLOAD EQ ISZERO PUSH2 0x540 JUMPI PUSH1 0x8 SLOAD ISZERO PUSH2 0x53B JUMPI PUSH1 0x8 SLOAD PUSH1 0x0 SWAP1 DUP2 MSTORE PUSH1 0x4 PUSH1 0x20 MSTORE PUSH1 0x40 SWAP1 KECCAK256 SLOAD ISZERO PUSH2 0x53B JUMPI POP PUSH1 0x1 JUMPDEST PUSH2 0x563 JUMP JUMPDEST PUSH1 0x7 SLOAD ISZERO PUSH2 0x563 JUMPI PUSH1 0x7 SLOAD PUSH1 0x0 SWAP1 DUP2 MSTORE PUSH1 0x4 PUSH1 0x20 MSTORE PUSH1 0x40 SWAP1 KECCAK256 SLOAD ISZERO PUSH2 0x563 JUMPI POP PUSH1 0x1 JUMPDEST PUSH2 0x56C JUMP JUMPDEST POP PUSH1 0x1 JUMPDEST NUMBER PUSH1 0x0 DUP4 DUP2 SLOAD DUP2 LT PUSH2 0x58E JUMPI PUSH4 0x4E487B71 PUSH1 0xE0 SHL PUSH1 0x0 MSTORE PUSH1 0x32 PUSH1 0x4 MSTORE PUSH1 0x24 PUSH1 0x0 REVERT JUMPDEST PUSH1 0x0 SWAP2 DUP3 MSTORE PUSH1 0x20 SWAP1 SWAP2 KECCAK256 PUSH1 0x4 SWAP1 SWAP2 MUL ADD SLOAD PUSH1 0x1 PUSH1 0x80 SHL SWAP1 DIV PUSH1 0x1 PUSH1 0x1 PUSH1 0x40 SHL SUB AND LT PUSH2 0xA69 JUMPI PUSH1 0x0 DUP1 DUP4 DUP2 SLOAD DUP2 LT PUSH2 0x5D6 JUMPI PUSH4 0x4E487B71 PUSH1 0xE0 SHL PUSH1 0x0 MSTORE PUSH1 0x32 PUSH1 0x4 MSTORE PUSH1 0x24 PUSH1 0x0 REVERT JUMPDEST PUSH1 0x0 SWAP2 DUP3 MSTORE PUSH1 0x20 DUP3 KECCAK256 PUSH1 0x1 PUSH1 0x4 SWAP1 SWAP3 MUL ADD ADD SLOAD DUP2 SLOAD PUSH1 0x1 PUSH1 0x1 PUSH1 0xA0 SHL SUB SWAP1 SWAP2 AND SWAP3 POP PUSH1 0xA SWAP1 DUP3 SWAP1 DUP7 SWAP1 DUP2 LT PUSH2 0x61B JUMPI PUSH4 0x4E487B71 PUSH1 0xE0 SHL PUSH1 0x0 MSTORE PUSH1 0x32 PUSH1 0x4 MSTORE PUSH1 0x24 PUSH1 0x0 REVERT JUMPDEST PUSH1 0x0 SWAP2 DUP3 MSTORE PUSH1 0x20 SWAP1 SWAP2 KECCAK256 PUSH1 0x4 SWAP1 SWAP2 MUL ADD SLOAD PUSH2 0x646 SWAP2 SWAP1 PUSH1 0x1 PUSH1 0x40 SHL SWAP1 DIV PUSH1 0x1 PUSH1 0x1 PUSH1 0x40 SHL SUB AND PUSH2 0x1DDF JUMP JUMPDEST PUSH2 0x651 SWAP1 PUSH1 0x8 PUSH2 0x1E24 JUMP JUMPDEST PUSH1 0x1 PUSH1 0x1 PUSH1 0x40 SHL SUB AND SWAP1 POP PUSH1 0x0 DUP1 DUP6 DUP2 SLOAD DUP2 LT PUSH2 0x67E JUMPI PUSH4 0x4E487B71 PUSH1 0xE0 SHL PUSH1 0x0 MSTORE PUSH1 0x32 PUSH1 0x4 MSTORE PUSH1 0x24 PUSH1 0x0 REVERT JUMPDEST SWAP1 PUSH1 0x0 MSTORE PUSH1 0x20 PUSH1 0x0 KECCAK256 SWAP1 PUSH1 0x4 MUL ADD PUSH1 0x0 ADD PUSH1 0x1C SWAP1 SLOAD SWAP1 PUSH2 0x100 EXP SWAP1 DIV PUSH4 0xFFFFFFFF AND SWAP1 POP PUSH1 0x0 DUP1 DUP7 DUP2 SLOAD DUP2 LT PUSH2 0x6C4 JUMPI PUSH4 0x4E487B71 PUSH1 0xE0 SHL PUSH1 0x0 MSTORE PUSH1 0x32 PUSH1 0x4 MSTORE PUSH1 0x24 PUSH1 0x0 REVERT JUMPDEST SWAP1 PUSH1 0x0 MSTORE PUSH1 0x20 PUSH1 0x0 KECCAK256 SWAP1 PUSH1 0x4 MUL ADD PUSH1 0x2 ADD SLOAD SWAP1 POP PUSH1 0x0 DUP1 DUP8 DUP2 SLOAD DUP2 LT PUSH2 0x6FA JUMPI PUSH4 0x4E487B71 PUSH1 0xE0 SHL PUSH1 0x0 MSTORE PUSH1 0x32 PUSH1 0x4 MSTORE PUSH1 0x24 PUSH1 0x0 REVERT JUMPDEST SWAP1 PUSH1 0x0 MSTORE PUSH1 0x20 PUSH1 0x0 KECCAK256 SWAP1 PUSH1 0x4 MUL ADD PUSH1 0x3 ADD SLOAD SWAP1 POP DUP6 ISZERO PUSH2 0x799 JUMPI DUP4 PUSH1 0x0 DUP9 DUP2 SLOAD DUP2 LT PUSH2 0x736 JUMPI PUSH4 0x4E487B71 PUSH1 0xE0 SHL PUSH1 0x0 MSTORE PUSH1 0x32 PUSH1 0x4 MSTORE PUSH1 0x24 PUSH1 0x0 REVERT JUMPDEST PUSH1 0x0 SWAP2 DUP3 MSTORE PUSH1 0x20 SWAP1 SWAP2 KECCAK256 PUSH1 0x4 SWAP1 SWAP2 MUL ADD SLOAD PUSH2 0x761 SWAP2 SWAP1 PUSH1 0x1 PUSH1 0x40 SHL SWAP1 DIV PUSH1 0x1 PUSH1 0x1 PUSH1 0x40 SHL SUB AND PUSH2 0x1E53 JUMP JUMPDEST PUSH1 0x3 PUSH1 0x0 PUSH2 0x771 PUSH2 0x3E8 NUMBER PUSH2 0x1DCB JUMP JUMPDEST DUP2 MSTORE PUSH1 0x20 ADD SWAP1 DUP2 MSTORE PUSH1 0x20 ADD PUSH1 0x0 KECCAK256 PUSH1 0x0 DUP3 DUP3 SLOAD PUSH2 0x78E SWAP2 SWAP1 PUSH2 0x1D88 JUMP JUMPDEST SWAP1 SWAP2 SSTORE POP PUSH2 0x7F3 SWAP1 POP JUMP JUMPDEST DUP4 PUSH1 0x0 DUP9 DUP2 SLOAD DUP2 LT PUSH2 0x7BB JUMPI PUSH4 0x4E487B71 PUSH1 0xE0 SHL PUSH1 0x0 MSTORE PUSH1 0x32 PUSH1 0x4 MSTORE PUSH1 0x24 PUSH1 0x0 REVERT JUMPDEST PUSH1 0x0 SWAP2 DUP3 MSTORE PUSH1 0x20 SWAP1 SWAP2 KECCAK256 PUSH1 0x4 SWAP1 SWAP2 MUL ADD SLOAD PUSH2 0x7E6 SWAP2 SWAP1 PUSH1 0x1 PUSH1 0x40 SHL SWAP1 DIV PUSH1 0x1 PUSH1 0x1 PUSH1 0x40 SHL SUB AND PUSH2 0x1E53 JUMP JUMPDEST PUSH2 0x7F0 SWAP1 DUP6 PUSH2 0x1D88 JUMP JUMPDEST SWAP4 POP JUMPDEST DUP4 PUSH1 0x2 PUSH1 0x0 DUP3 DUP3 SLOAD PUSH2 0x805 SWAP2 SWAP1 PUSH2 0x1D88 JUMP JUMPDEST SWAP1 SWAP2 SSTORE POP POP PUSH1 0x0 DUP1 SLOAD DUP9 SWAP1 DUP2 LT PUSH2 0x82C JUMPI PUSH4 0x4E487B71 PUSH1 0xE0 SHL PUSH1 0x0 MSTORE PUSH1 0x32 PUSH1 0x4 MSTORE PUSH1 0x24 PUSH1 0x0 REVERT JUMPDEST PUSH1 0x0 SWAP2 DUP3 MSTORE PUSH1 0x20 DUP3 KECCAK256 PUSH1 0x4 SWAP1 SWAP2 MUL ADD DUP2 DUP2 SSTORE PUSH1 0x1 DUP1 DUP3 ADD DUP1 SLOAD PUSH1 0x1 PUSH1 0x1 PUSH1 0xA0 SHL SUB NOT AND SWAP1 SSTORE PUSH1 0x2 DUP3 ADD DUP4 SWAP1 SSTORE PUSH1 0x3 SWAP1 SWAP2 ADD DUP3 SWAP1 SSTORE DUP1 SLOAD SWAP2 PUSH2 0x86C DUP4 PUSH2 0x1E6A JUMP JUMPDEST SWAP2 SWAP1 POP SSTORE POP PUSH1 0x0 DUP3 PUSH1 0x0 EQ DUP1 ISZERO PUSH2 0x881 JUMPI POP DUP2 ISZERO JUMPDEST ISZERO PUSH2 0x92D JUMPI DUP6 PUSH1 0x1 PUSH1 0x1 PUSH1 0xA0 SHL SUB AND DUP5 PUSH4 0xFFFFFFFF AND DUP11 PUSH1 0x40 MLOAD PUSH1 0x24 ADD PUSH2 0x8AA SWAP2 DUP2 MSTORE PUSH1 0x20 ADD SWAP1 JUMP JUMPDEST PUSH1 0x40 DUP1 MLOAD PUSH1 0x1F NOT DUP2 DUP5 SUB ADD DUP2 MSTORE SWAP2 DUP2 MSTORE PUSH1 0x20 DUP3 ADD DUP1 MLOAD PUSH1 0x1 PUSH1 0x1 PUSH1 0xE0 SHL SUB AND PUSH4 0x13E0B217 PUSH1 0xE1 SHL OR SWAP1 MSTORE MLOAD PUSH2 0x8DF SWAP2 SWAP1 PUSH2 0x1C65 JUMP JUMPDEST PUSH1 0x0 PUSH1 0x40 MLOAD DUP1 DUP4 SUB DUP2 PUSH1 0x0 DUP8 DUP8 CALL SWAP3 POP POP POP RETURNDATASIZE DUP1 PUSH1 0x0 DUP2 EQ PUSH2 0x91D JUMPI PUSH1 0x40 MLOAD SWAP2 POP PUSH1 0x1F NOT PUSH1 0x3F RETURNDATASIZE ADD AND DUP3 ADD PUSH1 0x40 MSTORE RETURNDATASIZE DUP3 MSTORE RETURNDATASIZE PUSH1 0x0 PUSH1 0x20 DUP5 ADD RETURNDATACOPY PUSH2 0x922 JUMP JUMPDEST PUSH1 0x60 SWAP2 POP JUMPDEST POP POP DUP1 SWAP2 POP POP PUSH2 0x9D9 JUMP JUMPDEST PUSH1 0x40 MLOAD PUSH1 0x24 DUP2 ADD DUP11 SWAP1 MSTORE PUSH1 0x44 DUP2 ADD DUP5 SWAP1 MSTORE PUSH1 0x64 DUP2 ADD DUP4 SWAP1 MSTORE PUSH1 0x1 PUSH1 0x1 PUSH1 0xA0 SHL SUB DUP8 AND SWAP1 PUSH4 0xFFFFFFFF DUP7 AND SWAP1 PUSH1 0x84 ADD PUSH1 0x40 DUP1 MLOAD PUSH1 0x1F NOT DUP2 DUP5 SUB ADD DUP2 MSTORE SWAP2 DUP2 MSTORE PUSH1 0x20 DUP3 ADD DUP1 MLOAD PUSH1 0x1 PUSH1 0x1 PUSH1 0xE0 SHL SUB AND PUSH4 0x5D7F703 PUSH1 0xE2 SHL OR SWAP1 MSTORE MLOAD PUSH2 0x990 SWAP2 SWAP1 PUSH2 0x1C65 JUMP JUMPDEST PUSH1 0x0 PUSH1 0x40 MLOAD DUP1 DUP4 SUB DUP2 PUSH1 0x0 DUP8 DUP8 CALL SWAP3 POP POP POP RETURNDATASIZE DUP1 PUSH1 0x0 DUP2 EQ PUSH2 0x9CE JUMPI PUSH1 0x40 MLOAD SWAP2 POP PUSH1 0x1F NOT PUSH1 0x3F RETURNDATASIZE ADD AND DUP3 ADD PUSH1 0x40 MSTORE RETURNDATASIZE DUP3 MSTORE RETURNDATASIZE PUSH1 0x0 PUSH1 0x20 DUP5 ADD RETURNDATACOPY PUSH2 0x9D3 JUMP JUMPDEST PUSH1 0x60 SWAP2 POP JUMPDEST POP SWAP1 SWAP2 POP POP JUMPDEST DUP1 PUSH2 0xA20 JUMPI PUSH32 0x86ABF6250EBAADBB42DEDF0794F338470DFBA82EED923B669F0FCE48A5CE5ABB DUP11 DUP8 DUP8 DUP12 PUSH1 0x40 MLOAD PUSH2 0xA13 SWAP5 SWAP4 SWAP3 SWAP2 SWAP1 PUSH2 0x1D58 JUMP JUMPDEST PUSH1 0x40 MLOAD DUP1 SWAP2 SUB SWAP1 LOG1 PUSH2 0xA5E JUMP JUMPDEST PUSH32 0x910C973544A08BC7A636EA9436726896A35FB16763F6A536991139FA41A7F0E5 DUP11 DUP8 DUP8 DUP12 PUSH1 0x40 MLOAD PUSH2 0xA55 SWAP5 SWAP4 SWAP3 SWAP2 SWAP1 PUSH2 0x1D58 JUMP JUMPDEST PUSH1 0x40 MLOAD DUP1 SWAP2 SUB SWAP1 LOG1 JUMPDEST POP POP POP POP POP POP PUSH2 0xBA0 JUMP JUMPDEST DUP1 ISZERO PUSH2 0xAE9 JUMPI PUSH1 0x0 DUP3 DUP2 SLOAD DUP2 LT PUSH2 0xA90 JUMPI PUSH4 0x4E487B71 PUSH1 0xE0 SHL PUSH1 0x0 MSTORE PUSH1 0x32 PUSH1 0x4 MSTORE PUSH1 0x24 PUSH1 0x0 REVERT JUMPDEST PUSH1 0x0 SWAP2 DUP3 MSTORE PUSH1 0x20 DUP3 KECCAK256 PUSH1 0x4 SWAP1 SWAP2 MUL ADD SLOAD PUSH1 0x1 PUSH1 0x1 PUSH1 0x40 SHL SUB PUSH1 0x1 PUSH1 0x40 SHL SWAP1 SWAP2 DIV AND SWAP1 PUSH1 0x3 SWAP1 PUSH2 0xAC1 PUSH2 0x3E8 NUMBER PUSH2 0x1DCB JUMP JUMPDEST DUP2 MSTORE PUSH1 0x20 ADD SWAP1 DUP2 MSTORE PUSH1 0x20 ADD PUSH1 0x0 KECCAK256 PUSH1 0x0 DUP3 DUP3 SLOAD PUSH2 0xADE SWAP2 SWAP1 PUSH2 0x1D88 JUMP JUMPDEST SWAP1 SWAP2 SSTORE POP PUSH2 0xB4F SWAP1 POP JUMP JUMPDEST PUSH1 0x0 DUP3 DUP2 SLOAD DUP2 LT PUSH2 0xB0A JUMPI PUSH4 0x4E487B71 PUSH1 0xE0 SHL PUSH1 0x0 MSTORE PUSH1 0x32 PUSH1 0x4 MSTORE PUSH1 0x24 PUSH1 0x0 REVERT JUMPDEST SWAP1 PUSH1 0x0 MSTORE PUSH1 0x20 PUSH1 0x0 KECCAK256 SWAP1 PUSH1 0x4 MUL ADD PUSH1 0x0 ADD PUSH1 0x8 SWAP1 SLOAD SWAP1 PUSH2 0x100 EXP SWAP1 DIV PUSH1 0x1 PUSH1 0x1 PUSH1 0x40 SHL SUB AND PUSH1 0x1 PUSH1 0x1 PUSH1 0x40 SHL SUB AND PUSH1 0x2 PUSH1 0x0 DUP3 DUP3 SLOAD PUSH2 0xB49 SWAP2 SWAP1 PUSH2 0x1D88 JUMP JUMPDEST SWAP1 SWAP2 SSTORE POP POP JUMPDEST PUSH1 0x0 DUP3 DUP2 SLOAD DUP2 LT PUSH2 0xB70 JUMPI PUSH4 0x4E487B71 PUSH1 0xE0 SHL PUSH1 0x0 MSTORE PUSH1 0x32 PUSH1 0x4 MSTORE PUSH1 0x24 PUSH1 0x0 REVERT JUMPDEST PUSH1 0x0 SWAP2 DUP3 MSTORE PUSH1 0x20 DUP3 KECCAK256 PUSH1 0x4 SWAP1 SWAP2 MUL ADD DUP2 DUP2 SSTORE PUSH1 0x1 DUP2 ADD DUP1 SLOAD PUSH1 0x1 PUSH1 0x1 PUSH1 0xA0 SHL SUB NOT AND SWAP1 SSTORE PUSH1 0x2 DUP2 ADD DUP3 SWAP1 SSTORE PUSH1 0x3 ADD SSTORE JUMPDEST POP POP POP POP JUMP JUMPDEST CALLER PUSH1 0x1 PUSH1 0x1 PUSH1 0xA0 SHL SUB PUSH32 0x0 AND EQ PUSH2 0xC1E JUMPI PUSH1 0x40 MLOAD PUSH3 0x461BCD PUSH1 0xE5 SHL DUP2 MSTORE PUSH1 0x20 PUSH1 0x4 DUP3 ADD MSTORE PUSH1 0x1C PUSH1 0x24 DUP3 ADD MSTORE PUSH32 0x5265737472696374656420746F20636F6E7472616374206F776E657200000000 PUSH1 0x44 DUP3 ADD MSTORE PUSH1 0x64 ADD PUSH2 0x473 JUMP JUMPDEST PUSH1 0x2 DUP1 SLOAD PUSH1 0x0 SWAP2 DUP3 SWAP1 SSTORE PUSH1 0x40 MLOAD SWAP1 SWAP2 PUSH1 0x1 PUSH1 0x1 PUSH1 0xA0 SHL SUB PUSH32 0x0 AND SWAP2 DUP4 ISZERO PUSH2 0x8FC MUL SWAP2 DUP5 SWAP2 SWAP1 DUP2 DUP2 DUP2 DUP6 DUP9 DUP9 CALL SWAP4 POP POP POP POP ISZERO DUP1 ISZERO PUSH2 0xC7F JUMPI RETURNDATASIZE PUSH1 0x0 DUP1 RETURNDATACOPY RETURNDATASIZE PUSH1 0x0 REVERT JUMPDEST POP POP JUMP JUMPDEST PUSH1 0x60 PUSH1 0x0 DUP1 SLOAD DUP1 PUSH1 0x20 MUL PUSH1 0x20 ADD PUSH1 0x40 MLOAD SWAP1 DUP2 ADD PUSH1 0x40 MSTORE DUP1 SWAP3 SWAP2 SWAP1 DUP2 DUP2 MSTORE PUSH1 0x20 ADD PUSH1 0x0 SWAP1 JUMPDEST DUP3 DUP3 LT ISZERO PUSH2 0xD5C JUMPI PUSH1 0x0 DUP5 DUP2 MSTORE PUSH1 0x20 SWAP1 DUP2 SWAP1 KECCAK256 PUSH1 0x40 DUP1 MLOAD PUSH2 0x100 DUP2 ADD DUP3 MSTORE PUSH1 0x4 DUP7 MUL SWAP1 SWAP3 ADD DUP1 SLOAD PUSH1 0xC0 DUP2 DUP2 SHL PUSH1 0x1 PUSH1 0x1 PUSH1 0xC0 SHL SUB NOT AND DUP6 MSTORE PUSH1 0x1 PUSH1 0x40 SHL DUP3 DIV PUSH1 0x1 PUSH1 0x1 PUSH1 0x40 SHL SUB SWAP1 DUP2 AND DUP7 DUP9 ADD MSTORE PUSH1 0x1 PUSH1 0x80 SHL DUP4 DIV AND SWAP4 DUP6 ADD SWAP4 SWAP1 SWAP4 MSTORE PUSH1 0x1 PUSH1 0xC0 SHL DUP2 DIV PUSH4 0xFFFFFFFF SWAP1 DUP2 AND PUSH1 0x60 DUP7 ADD MSTORE PUSH1 0x1 PUSH1 0xE0 SHL SWAP1 SWAP2 DIV AND PUSH1 0x80 DUP5 ADD MSTORE PUSH1 0x1 DUP1 DUP3 ADD SLOAD PUSH1 0x1 PUSH1 0x1 PUSH1 0xA0 SHL SUB AND PUSH1 0xA0 DUP6 ADD MSTORE PUSH1 0x2 DUP3 ADD SLOAD SWAP3 DUP5 ADD SWAP3 SWAP1 SWAP3 MSTORE PUSH1 0x3 ADD SLOAD PUSH1 0xE0 DUP4 ADD MSTORE SWAP1 DUP4 MSTORE SWAP1 SWAP3 ADD SWAP2 ADD PUSH2 0xCA7 JUMP JUMPDEST POP POP POP POP SWAP1 POP SWAP1 JUMP JUMPDEST PUSH1 0x1 PUSH1 0x1 PUSH1 0xA0 SHL SUB DUP2 AND PUSH1 0x0 SWAP1 DUP2 MSTORE PUSH1 0x5 PUSH1 0x20 MSTORE PUSH1 0x40 SWAP1 KECCAK256 SLOAD PUSH2 0xDB9 JUMPI PUSH1 0x40 MLOAD PUSH3 0x461BCD PUSH1 0xE5 SHL DUP2 MSTORE PUSH1 0x20 PUSH1 0x4 DUP3 ADD MSTORE PUSH1 0xC PUSH1 0x24 DUP3 ADD MSTORE PUSH12 0x2737BA10309039BA30B5B2B9 PUSH1 0xA1 SHL PUSH1 0x44 DUP3 ADD MSTORE PUSH1 0x64 ADD PUSH2 0x473 JUMP JUMPDEST PUSH1 0x1 PUSH1 0x1 PUSH1 0xA0 SHL SUB DUP2 AND PUSH1 0x0 SWAP1 DUP2 MSTORE PUSH1 0x5 PUSH1 0x20 MSTORE PUSH1 0x40 SWAP1 KECCAK256 SLOAD PUSH1 0x1 PUSH2 0xDE0 PUSH2 0x3E8 NUMBER PUSH2 0x1DCB JUMP JUMPDEST PUSH2 0xDEA SWAP2 SWAP1 PUSH2 0x1E53 JUMP JUMPDEST LT ISZERO PUSH2 0xE2F JUMPI PUSH1 0x40 MLOAD PUSH3 0x461BCD PUSH1 0xE5 SHL DUP2 MSTORE PUSH1 0x20 PUSH1 0x4 DUP3 ADD MSTORE PUSH1 0x14 PUSH1 0x24 DUP3 ADD MSTORE PUSH20 0x139BC8199D5B1B0818DA58DB19481CDD185AD959 PUSH1 0x62 SHL PUSH1 0x44 DUP3 ADD MSTORE PUSH1 0x64 ADD PUSH2 0x473 JUMP JUMPDEST PUSH1 0x1 PUSH1 0x1 PUSH1 0xA0 SHL SUB DUP2 AND PUSH1 0x0 SWAP1 DUP2 MSTORE PUSH1 0x5 PUSH1 0x20 MSTORE PUSH1 0x40 DUP2 KECCAK256 SLOAD JUMPDEST PUSH1 0x1 PUSH2 0xE57 PUSH2 0x3E8 NUMBER PUSH2 0x1DCB JUMP JUMPDEST PUSH2 0xE61 SWAP2 SWAP1 PUSH2 0x1E53 JUMP JUMPDEST DUP2 GT PUSH2 0xE8F JUMPI PUSH2 0xE71 DUP2 DUP5 PUSH2 0x1965 JUMP JUMPDEST PUSH2 0xE7B SWAP1 DUP4 PUSH2 0x1D88 JUMP JUMPDEST SWAP2 POP DUP1 PUSH2 0xE87 DUP2 PUSH2 0x1E6A JUMP JUMPDEST SWAP2 POP POP PUSH2 0xE49 JUMP JUMPDEST POP PUSH2 0xE9C PUSH2 0x3E8 NUMBER PUSH2 0x1DCB JUMP JUMPDEST PUSH1 0x1 PUSH1 0x1 PUSH1 0xA0 SHL SUB DUP4 AND PUSH1 0x0 DUP2 DUP2 MSTORE PUSH1 0x5 PUSH1 0x20 MSTORE PUSH1 0x40 DUP1 DUP3 KECCAK256 SWAP4 SWAP1 SWAP4 SSTORE SWAP2 MLOAD SWAP1 SWAP2 DUP4 ISZERO PUSH2 0x8FC MUL SWAP2 DUP5 SWAP2 DUP2 DUP2 DUP2 DUP6 DUP9 DUP9 CALL SWAP4 POP POP POP POP ISZERO DUP1 ISZERO PUSH2 0xEE3 JUMPI RETURNDATASIZE PUSH1 0x0 DUP1 RETURNDATACOPY RETURNDATASIZE PUSH1 0x0 REVERT JUMPDEST POP POP POP JUMP JUMPDEST PUSH8 0xDE0B6B3A7640000 CALLVALUE LT PUSH2 0xEFC JUMPI PUSH1 0x0 DUP1 REVERT JUMPDEST PUSH1 0x0 CALLVALUE GT PUSH2 0xF09 JUMPI PUSH1 0x0 DUP1 REVERT JUMPDEST PUSH8 0xDE0B6B3A7640000 PUSH1 0x0 DUP3 DUP2 SLOAD DUP2 LT PUSH2 0xF33 JUMPI PUSH4 0x4E487B71 PUSH1 0xE0 SHL PUSH1 0x0 MSTORE PUSH1 0x32 PUSH1 0x4 MSTORE PUSH1 0x24 PUSH1 0x0 REVERT JUMPDEST PUSH1 0x0 SWAP2 DUP3 MSTORE PUSH1 0x20 SWAP1 SWAP2 KECCAK256 PUSH1 0x4 SWAP1 SWAP2 MUL ADD SLOAD PUSH2 0xF5E SWAP1 PUSH1 0x1 PUSH1 0x40 SHL SWAP1 DIV PUSH1 0x1 PUSH1 0x1 PUSH1 0x40 SHL SUB AND CALLVALUE PUSH2 0x1D88 JUMP JUMPDEST LT PUSH2 0xF68 JUMPI PUSH1 0x0 DUP1 REVERT JUMPDEST PUSH1 0x0 DUP2 DUP2 SLOAD DUP2 LT PUSH2 0xF89 JUMPI PUSH4 0x4E487B71 PUSH1 0xE0 SHL PUSH1 0x0 MSTORE PUSH1 0x32 PUSH1 0x4 MSTORE PUSH1 0x24 PUSH1 0x0 REVERT JUMPDEST PUSH1 0x0 SWAP2 DUP3 MSTORE PUSH1 0x20 SWAP1 SWAP2 KECCAK256 PUSH1 0x4 SWAP1 SWAP2 MUL ADD SLOAD PUSH1 0x1 PUSH1 0x80 SHL SWAP1 DIV PUSH1 0x1 PUSH1 0x1 PUSH1 0x40 SHL SUB AND PUSH2 0xFB3 JUMPI PUSH1 0x0 DUP1 REVERT JUMPDEST CALLVALUE PUSH1 0x0 DUP3 DUP2 SLOAD DUP2 LT PUSH2 0xFD5 JUMPI PUSH4 0x4E487B71 PUSH1 0xE0 SHL PUSH1 0x0 MSTORE PUSH1 0x32 PUSH1 0x4 MSTORE PUSH1 0x24 PUSH1 0x0 REVERT JUMPDEST PUSH1 0x0 SWAP2 DUP3 MSTORE PUSH1 0x20 SWAP1 SWAP2 KECCAK256 PUSH1 0x4 SWAP1 SWAP2 MUL ADD DUP1 SLOAD PUSH1 0x8 SWAP1 PUSH2 0x1005 SWAP1 DUP5 SWAP1 PUSH1 0x1 PUSH1 0x40 SHL SWAP1 DIV PUSH1 0x1 PUSH1 0x1 PUSH1 0x40 SHL SUB AND PUSH2 0x1DA0 JUMP JUMPDEST SWAP3 POP PUSH2 0x100 EXP DUP2 SLOAD DUP2 PUSH1 0x1 PUSH1 0x1 PUSH1 0x40 SHL SUB MUL NOT AND SWAP1 DUP4 PUSH1 0x1 PUSH1 0x1 PUSH1 0x40 SHL SUB AND MUL OR SWAP1 SSTORE POP POP JUMP JUMPDEST PUSH1 0x64 DUP5 GT PUSH2 0x1039 JUMPI PUSH1 0x0 DUP1 REVERT JUMPDEST PUSH8 0xDE0B6B3A7640000 CALLVALUE LT PUSH2 0x104D JUMPI PUSH1 0x0 DUP1 REVERT JUMPDEST PUSH3 0xF4240 DUP5 LT PUSH2 0x105C JUMPI PUSH1 0x0 DUP1 REVERT JUMPDEST PUSH3 0x7A120 DUP4 PUSH4 0xFFFFFFFF AND LT PUSH2 0x1071 JUMPI PUSH1 0x0 DUP1 REVERT JUMPDEST PUSH2 0x1079 PUSH2 0x1AA0 JUMP JUMPDEST PUSH1 0x1 PUSH1 0x1 PUSH1 0xC0 SHL SUB NOT DUP8 AND DUP2 MSTORE PUSH1 0x1 PUSH1 0x1 PUSH1 0x40 SHL SUB CALLVALUE AND PUSH1 0x20 DUP3 ADD MSTORE PUSH2 0x109F DUP6 NUMBER PUSH2 0x1D88 JUMP JUMPDEST PUSH1 0x1 PUSH1 0x1 PUSH1 0x40 SHL SUB AND PUSH1 0x40 DUP3 ADD MSTORE PUSH1 0x1 PUSH1 0x1 PUSH1 0xA0 SHL SUB DUP7 AND PUSH1 0xA0 DUP3 ADD MSTORE PUSH1 0x0 SLOAD PUSH4 0xFFFFFFFF SWAP1 DUP2 AND PUSH1 0x60 DUP4 ADD MSTORE DUP5 AND PUSH1 0x80 DUP3 ADD MSTORE DUP3 ISZERO PUSH2 0x10E1 JUMPI PUSH1 0xC0 DUP2 ADD DUP4 SWAP1 MSTORE JUMPDEST DUP2 ISZERO PUSH2 0x10EF JUMPI PUSH1 0xE0 DUP2 ADD DUP3 SWAP1 MSTORE JUMPDEST PUSH1 0x0 DUP1 SLOAD PUSH1 0x1 DUP2 ADD DUP3 SSTORE SWAP1 DUP1 MSTORE DUP2 MLOAD PUSH32 0x290DECD9548B62A8D60345A988386FC84BA6BC95484008F6362F93160EF3E563 PUSH1 0x4 SWAP1 SWAP3 MUL SWAP2 DUP3 ADD DUP1 SLOAD PUSH1 0x20 DUP6 ADD MLOAD PUSH1 0x40 DUP7 ADD MLOAD PUSH1 0x60 DUP8 ADD MLOAD PUSH1 0x80 DUP9 ADD MLOAD PUSH8 0xFFFFFFFFFFFFFFFF NOT SWAP1 SWAP5 AND PUSH1 0xC0 SWAP7 DUP8 SHR OR PUSH8 0xFFFFFFFFFFFFFFFF PUSH1 0x40 SHL NOT AND PUSH1 0x1 PUSH1 0x40 SHL PUSH1 0x1 PUSH1 0x1 PUSH1 0x40 SHL SUB SWAP5 DUP6 AND MUL OR PUSH8 0xFFFFFFFFFFFFFFFF PUSH1 0x80 SHL NOT AND PUSH1 0x1 PUSH1 0x80 SHL SWAP4 SWAP1 SWAP3 AND SWAP3 SWAP1 SWAP3 MUL OR PUSH4 0xFFFFFFFF PUSH1 0xC0 SHL NOT AND PUSH1 0x1 PUSH1 0xC0 SHL PUSH4 0xFFFFFFFF SWAP3 DUP4 AND MUL OR PUSH1 0x1 PUSH1 0x1 PUSH1 0xE0 SHL SUB AND PUSH1 0x1 PUSH1 0xE0 SHL SWAP2 SWAP1 SWAP3 AND MUL OR SWAP1 SSTORE PUSH1 0xA0 DUP4 ADD MLOAD PUSH32 0x290DECD9548B62A8D60345A988386FC84BA6BC95484008F6362F93160EF3E564 DUP4 ADD DUP1 SLOAD PUSH1 0x1 PUSH1 0x1 PUSH1 0xA0 SHL SUB NOT AND PUSH1 0x1 PUSH1 0x1 PUSH1 0xA0 SHL SUB SWAP1 SWAP3 AND SWAP2 SWAP1 SWAP2 OR SWAP1 SSTORE DUP3 ADD MLOAD PUSH32 0x290DECD9548B62A8D60345A988386FC84BA6BC95484008F6362F93160EF3E565 DUP3 ADD SSTORE PUSH1 0xE0 SWAP1 SWAP2 ADD MLOAD PUSH32 0x290DECD9548B62A8D60345A988386FC84BA6BC95484008F6362F93160EF3E566 SWAP1 SWAP2 ADD SSTORE POP POP POP POP POP POP JUMP JUMPDEST PUSH1 0x1 PUSH1 0x1 PUSH1 0xA0 SHL SUB DUP2 AND PUSH1 0x0 SWAP1 DUP2 MSTORE PUSH1 0x5 PUSH1 0x20 MSTORE PUSH1 0x40 SWAP1 KECCAK256 SLOAD PUSH1 0x1 PUSH2 0x1281 PUSH2 0x3E8 NUMBER PUSH2 0x1DCB JUMP JUMPDEST PUSH2 0x128B SWAP2 SWAP1 PUSH2 0x1E53 JUMP JUMPDEST LT PUSH2 0x1299 JUMPI PUSH2 0x1299 DUP2 PUSH2 0xD65 JUMP JUMPDEST PUSH2 0x12A2 DUP2 PUSH2 0x14E6 JUMP JUMPDEST POP JUMP JUMPDEST PUSH1 0x0 DUP2 PUSH2 0x12C4 JUMPI POP PUSH1 0x7 SLOAD PUSH1 0x0 SWAP1 DUP2 MSTORE PUSH1 0x4 PUSH1 0x20 MSTORE PUSH1 0x40 SWAP1 KECCAK256 SLOAD PUSH2 0x12D5 JUMP JUMPDEST POP PUSH1 0x0 DUP2 DUP2 MSTORE PUSH1 0x4 PUSH1 0x20 MSTORE PUSH1 0x40 SWAP1 KECCAK256 SLOAD JUMPDEST SWAP2 SWAP1 POP JUMP JUMPDEST PUSH1 0x64 DUP3 GT PUSH2 0x12E7 JUMPI PUSH1 0x0 DUP1 REVERT JUMPDEST PUSH8 0xDE0B6B3A7640000 CALLVALUE LT PUSH2 0x12FB JUMPI PUSH1 0x0 DUP1 REVERT JUMPDEST PUSH3 0xF4240 DUP3 LT PUSH2 0x130A JUMPI PUSH1 0x0 DUP1 REVERT JUMPDEST PUSH3 0x7A120 DUP2 PUSH4 0xFFFFFFFF AND LT PUSH2 0x131F JUMPI PUSH1 0x0 DUP1 REVERT JUMPDEST PUSH2 0x1327 PUSH2 0x1AA0 JUMP JUMPDEST PUSH1 0x1 PUSH1 0x1 PUSH1 0xC0 SHL SUB NOT DUP6 AND DUP2 MSTORE PUSH1 0x1 PUSH1 0x1 PUSH1 0x40 SHL SUB CALLVALUE AND PUSH1 0x20 DUP3 ADD MSTORE PUSH2 0x134D DUP4 NUMBER PUSH2 0x1D88 JUMP JUMPDEST PUSH1 0x1 PUSH1 0x1 PUSH1 0x40 SHL SUB SWAP1 DUP2 AND PUSH1 0x40 DUP4 ADD SWAP1 DUP2 MSTORE PUSH1 0x1 PUSH1 0x1 PUSH1 0xA0 SHL SUB SWAP6 DUP7 AND PUSH1 0xA0 DUP5 ADD SWAP1 DUP2 MSTORE PUSH1 0x0 DUP1 SLOAD PUSH4 0xFFFFFFFF DUP1 DUP3 AND PUSH1 0x60 DUP9 ADD SWAP1 DUP2 MSTORE SWAP8 DUP2 AND PUSH1 0x80 DUP9 ADD SWAP1 DUP2 MSTORE PUSH1 0x1 DUP4 ADD DUP5 SSTORE SWAP3 DUP1 MSTORE DUP7 MLOAD PUSH32 0x290DECD9548B62A8D60345A988386FC84BA6BC95484008F6362F93160EF3E563 PUSH1 0x4 SWAP1 SWAP4 MUL SWAP3 DUP4 ADD DUP1 SLOAD PUSH1 0x20 DUP11 ADD MLOAD SWAP8 MLOAD SWAP11 MLOAD SWAP6 MLOAD PUSH8 0xFFFFFFFFFFFFFFFF NOT SWAP1 SWAP2 AND PUSH1 0xC0 SWAP4 DUP5 SHR OR PUSH8 0xFFFFFFFFFFFFFFFF PUSH1 0x40 SHL NOT AND PUSH1 0x1 PUSH1 0x40 SHL SWAP9 DUP11 AND SWAP9 SWAP1 SWAP9 MUL SWAP8 SWAP1 SWAP8 OR PUSH8 0xFFFFFFFFFFFFFFFF PUSH1 0x80 SHL NOT AND PUSH1 0x1 PUSH1 0x80 SHL SWAP11 SWAP1 SWAP9 AND SWAP10 SWAP1 SWAP10 MUL SWAP7 SWAP1 SWAP7 OR PUSH4 0xFFFFFFFF PUSH1 0xC0 SHL NOT AND PUSH1 0x1 PUSH1 0xC0 SHL SWAP4 DUP3 AND SWAP4 SWAP1 SWAP4 MUL SWAP3 SWAP1 SWAP3 OR PUSH1 0x1 PUSH1 0x1 PUSH1 0xE0 SHL SUB AND PUSH1 0x1 PUSH1 0xE0 SHL SWAP5 SWAP1 SWAP3 AND SWAP4 SWAP1 SWAP4 MUL OR SWAP1 SWAP5 SSTORE SWAP3 MLOAD PUSH32 0x290DECD9548B62A8D60345A988386FC84BA6BC95484008F6362F93160EF3E564 DUP5 ADD DUP1 SLOAD PUSH1 0x1 PUSH1 0x1 PUSH1 0xA0 SHL SUB NOT AND SWAP2 SWAP1 SWAP7 AND OR SWAP1 SWAP5 SSTORE SWAP3 DUP4 ADD MLOAD PUSH32 0x290DECD9548B62A8D60345A988386FC84BA6BC95484008F6362F93160EF3E565 DUP3 ADD SSTORE PUSH1 0xE0 SWAP1 SWAP3 ADD MLOAD PUSH32 0x290DECD9548B62A8D60345A988386FC84BA6BC95484008F6362F93160EF3E566 SWAP1 SWAP3 ADD SWAP2 SWAP1 SWAP2 SSTORE POP POP JUMP JUMPDEST CALLER PUSH1 0x1 PUSH1 0x1 PUSH1 0xA0 SHL SUB PUSH32 0x0 AND EQ PUSH2 0x151B JUMPI PUSH1 0x0 DUP1 REVERT JUMPDEST PUSH1 0x1 PUSH1 0x1 PUSH1 0xA0 SHL SUB DUP2 AND PUSH1 0x0 SWAP1 DUP2 MSTORE PUSH1 0x5 PUSH1 0x20 MSTORE PUSH1 0x40 SWAP1 KECCAK256 SLOAD PUSH2 0x153D JUMPI PUSH1 0x0 DUP1 REVERT JUMPDEST PUSH1 0x0 PUSH2 0x154B PUSH2 0x3E8 NUMBER PUSH2 0x1DCB JUMP JUMPDEST PUSH2 0x1556 SWAP1 PUSH1 0x1 PUSH2 0x1D88 JUMP JUMPDEST SWAP1 POP PUSH1 0x4 PUSH1 0x0 PUSH2 0x1568 PUSH2 0x3E8 NUMBER PUSH2 0x1DCB JUMP JUMPDEST DUP2 MSTORE PUSH1 0x20 ADD SWAP1 DUP2 MSTORE PUSH1 0x20 ADD PUSH1 0x0 KECCAK256 SLOAD PUSH1 0x0 EQ ISZERO PUSH2 0x1604 JUMPI DUP1 PUSH1 0x7 SLOAD EQ ISZERO PUSH2 0x15C9 JUMPI PUSH1 0x8 SLOAD ISZERO PUSH2 0x15C4 JUMPI PUSH1 0x8 SLOAD PUSH1 0x0 SWAP1 DUP2 MSTORE PUSH1 0x4 PUSH1 0x20 DUP2 SWAP1 MSTORE PUSH1 0x40 DUP3 KECCAK256 SLOAD SWAP2 PUSH2 0x15B2 PUSH2 0x3E8 NUMBER PUSH2 0x1DCB JUMP JUMPDEST DUP2 MSTORE PUSH1 0x20 DUP2 ADD SWAP2 SWAP1 SWAP2 MSTORE PUSH1 0x40 ADD PUSH1 0x0 KECCAK256 SSTORE JUMPDEST PUSH2 0x1604 JUMP JUMPDEST PUSH1 0x7 SLOAD ISZERO PUSH2 0x1604 JUMPI PUSH1 0x7 SLOAD PUSH1 0x0 SWAP1 DUP2 MSTORE PUSH1 0x4 PUSH1 0x20 DUP2 SWAP1 MSTORE PUSH1 0x40 DUP3 KECCAK256 SLOAD SWAP2 PUSH2 0x15F2 PUSH2 0x3E8 NUMBER PUSH2 0x1DCB JUMP JUMPDEST DUP2 MSTORE PUSH1 0x20 DUP2 ADD SWAP2 SWAP1 SWAP2 MSTORE PUSH1 0x40 ADD PUSH1 0x0 KECCAK256 SSTORE JUMPDEST PUSH1 0x0 DUP2 DUP2 MSTORE PUSH1 0x4 PUSH1 0x20 MSTORE PUSH1 0x40 SWAP1 KECCAK256 SLOAD PUSH2 0x1649 JUMPI PUSH1 0x7 SLOAD ISZERO DUP1 ISZERO SWAP1 PUSH2 0x162A JUMPI POP DUP1 PUSH1 0x7 SLOAD EQ ISZERO JUMPDEST ISZERO PUSH2 0x1649 JUMPI PUSH1 0x7 SLOAD PUSH1 0x0 SWAP1 DUP2 MSTORE PUSH1 0x4 PUSH1 0x20 MSTORE PUSH1 0x40 DUP1 DUP3 KECCAK256 SLOAD DUP4 DUP4 MSTORE SWAP2 KECCAK256 SSTORE JUMPDEST DUP1 PUSH1 0x7 SLOAD EQ PUSH2 0x165D JUMPI PUSH1 0x7 DUP1 SLOAD PUSH1 0x8 SSTORE DUP2 SWAP1 SSTORE JUMPDEST PUSH1 0x1 PUSH1 0x1 PUSH1 0xA0 SHL SUB DUP3 AND PUSH1 0x0 SWAP1 DUP2 MSTORE PUSH1 0x6 PUSH1 0x20 SWAP1 DUP2 MSTORE PUSH1 0x40 DUP1 DUP4 KECCAK256 SLOAD DUP5 DUP5 MSTORE PUSH1 0x4 SWAP1 SWAP3 MSTORE DUP3 KECCAK256 DUP1 SLOAD SWAP2 SWAP3 DUP4 SWAP3 PUSH2 0x1694 SWAP1 DUP5 SWAP1 PUSH2 0x1E53 JUMP JUMPDEST SWAP1 SWAP2 SSTORE POP PUSH2 0x16A5 SWAP1 POP PUSH1 0x1 DUP4 PUSH2 0x1E53 JUMP JUMPDEST PUSH1 0x1 PUSH1 0x1 PUSH1 0xA0 SHL SUB DUP5 AND PUSH1 0x0 SWAP1 DUP2 MSTORE PUSH1 0x5 PUSH1 0x20 MSTORE PUSH1 0x40 SWAP1 KECCAK256 SLOAD GT PUSH2 0x175F JUMPI DUP1 PUSH1 0x4 PUSH1 0x0 PUSH2 0x16D3 PUSH1 0x1 DUP7 PUSH2 0x1E53 JUMP JUMPDEST DUP2 MSTORE PUSH1 0x20 ADD SWAP1 DUP2 MSTORE PUSH1 0x20 ADD PUSH1 0x0 KECCAK256 PUSH1 0x0 DUP3 DUP3 SLOAD PUSH2 0x16F0 SWAP2 SWAP1 PUSH2 0x1E53 JUMP JUMPDEST SWAP1 SWAP2 SSTORE POP PUSH2 0x1701 SWAP1 POP PUSH1 0x1 DUP4 PUSH2 0x1E53 JUMP JUMPDEST PUSH1 0x8 SSTORE PUSH1 0x4 PUSH1 0x0 PUSH2 0x1713 PUSH1 0x1 DUP6 PUSH2 0x1E53 JUMP JUMPDEST DUP2 MSTORE PUSH1 0x20 ADD SWAP1 DUP2 MSTORE PUSH1 0x20 ADD PUSH1 0x0 KECCAK256 SLOAD PUSH1 0x0 EQ ISZERO PUSH2 0x175F JUMPI PUSH1 0x3 PUSH1 0x0 PUSH2 0x1739 PUSH1 0x1 DUP6 PUSH2 0x1E53 JUMP JUMPDEST DUP2 MSTORE PUSH1 0x20 ADD SWAP1 DUP2 MSTORE PUSH1 0x20 ADD PUSH1 0x0 KECCAK256 SLOAD PUSH1 0x2 PUSH1 0x0 DUP3 DUP3 SLOAD PUSH2 0x1759 SWAP2 SWAP1 PUSH2 0x1D88 JUMP JUMPDEST SWAP1 SWAP2 SSTORE POP POP JUMPDEST POP POP PUSH1 0x1 PUSH1 0x1 PUSH1 0xA0 SHL SUB AND PUSH1 0x0 SWAP1 DUP2 MSTORE PUSH1 0x6 PUSH1 0x20 SWAP1 DUP2 MSTORE PUSH1 0x40 DUP1 DUP4 KECCAK256 DUP4 SWAP1 SSTORE PUSH1 0x5 SWAP1 SWAP2 MSTORE DUP2 KECCAK256 SSTORE JUMP JUMPDEST CALLER PUSH1 0x1 PUSH1 0x1 PUSH1 0xA0 SHL SUB PUSH32 0x0 AND EQ PUSH2 0x1800 JUMPI PUSH1 0x40 MLOAD PUSH3 0x461BCD PUSH1 0xE5 SHL DUP2 MSTORE PUSH1 0x20 PUSH1 0x4 DUP3 ADD MSTORE PUSH1 0x1B PUSH1 0x24 DUP3 ADD MSTORE PUSH32 0x496E697469617465642062792077726F6E6720636F6E74726163740000000000 PUSH1 0x44 DUP3 ADD MSTORE PUSH1 0x64 ADD PUSH2 0x473 JUMP JUMPDEST PUSH1 0x1 PUSH1 0x1 PUSH1 0xA0 SHL SUB DUP3 AND PUSH1 0x0 SWAP1 DUP2 MSTORE PUSH1 0x5 PUSH1 0x20 MSTORE PUSH1 0x40 SWAP1 KECCAK256 SLOAD ISZERO PUSH2 0x1858 JUMPI PUSH1 0x40 MLOAD PUSH3 0x461BCD PUSH1 0xE5 SHL DUP2 MSTORE PUSH1 0x20 PUSH1 0x4 DUP3 ADD MSTORE PUSH1 0xF PUSH1 0x24 DUP3 ADD MSTORE PUSH15 0x416C7265616479207374616B696E67 PUSH1 0x88 SHL PUSH1 0x44 DUP3 ADD MSTORE PUSH1 0x64 ADD PUSH2 0x473 JUMP JUMPDEST PUSH1 0x0 DUP2 GT PUSH2 0x1894 JUMPI PUSH1 0x40 MLOAD PUSH3 0x461BCD PUSH1 0xE5 SHL DUP2 MSTORE PUSH1 0x20 PUSH1 0x4 DUP3 ADD MSTORE PUSH1 0x9 PUSH1 0x24 DUP3 ADD MSTORE PUSH9 0x4E6F20546F6B656E73 PUSH1 0xB8 SHL PUSH1 0x44 DUP3 ADD MSTORE PUSH1 0x64 ADD PUSH2 0x473 JUMP JUMPDEST PUSH1 0x0 PUSH2 0x18A2 PUSH2 0x3E8 NUMBER PUSH2 0x1DCB JUMP JUMPDEST PUSH2 0x18AD SWAP1 PUSH1 0x1 PUSH2 0x1D88 JUMP JUMPDEST PUSH1 0x1 PUSH1 0x1 PUSH1 0xA0 SHL SUB DUP5 AND PUSH1 0x0 SWAP1 DUP2 MSTORE PUSH1 0x5 PUSH1 0x20 SWAP1 DUP2 MSTORE PUSH1 0x40 DUP1 DUP4 KECCAK256 DUP5 SWAP1 SSTORE DUP4 DUP4 MSTORE PUSH1 0x4 SWAP1 SWAP2 MSTORE SWAP1 KECCAK256 SLOAD SWAP1 SWAP2 POP PUSH2 0x190F JUMPI PUSH1 0x7 SLOAD ISZERO DUP1 ISZERO SWAP1 PUSH2 0x18F0 JUMPI POP DUP1 PUSH1 0x7 SLOAD EQ ISZERO JUMPDEST ISZERO PUSH2 0x190F JUMPI PUSH1 0x7 SLOAD PUSH1 0x0 SWAP1 DUP2 MSTORE PUSH1 0x4 PUSH1 0x20 MSTORE PUSH1 0x40 DUP1 DUP3 KECCAK256 SLOAD DUP4 DUP4 MSTORE SWAP2 KECCAK256 SSTORE JUMPDEST PUSH1 0x0 DUP2 DUP2 MSTORE PUSH1 0x4 PUSH1 0x20 MSTORE PUSH1 0x40 DUP2 KECCAK256 DUP1 SLOAD DUP5 SWAP3 DUP4 SWAP3 SWAP2 PUSH2 0x192F SWAP1 DUP5 SWAP1 PUSH2 0x1D88 JUMP JUMPDEST SWAP1 SWAP2 SSTORE POP POP PUSH1 0x1 PUSH1 0x1 PUSH1 0xA0 SHL SUB DUP5 AND PUSH1 0x0 SWAP1 DUP2 MSTORE PUSH1 0x6 PUSH1 0x20 MSTORE PUSH1 0x40 SWAP1 KECCAK256 DUP2 SWAP1 SSTORE PUSH1 0x7 SLOAD DUP3 EQ PUSH2 0xBA0 JUMPI POP PUSH1 0x7 DUP1 SLOAD PUSH1 0x8 SSTORE SSTORE POP POP JUMP JUMPDEST PUSH1 0x0 DUP3 DUP2 MSTORE PUSH1 0x4 PUSH1 0x20 MSTORE PUSH1 0x40 DUP2 KECCAK256 SLOAD PUSH2 0x19CD JUMPI PUSH1 0x4 PUSH1 0x0 PUSH2 0x1987 PUSH1 0x1 DUP7 PUSH2 0x1E53 JUMP JUMPDEST DUP2 MSTORE PUSH1 0x20 ADD SWAP1 DUP2 MSTORE PUSH1 0x20 ADD PUSH1 0x0 KECCAK256 SLOAD PUSH1 0x0 EQ PUSH2 0x19CD JUMPI PUSH1 0x4 PUSH1 0x0 PUSH2 0x19AC PUSH1 0x1 DUP7 PUSH2 0x1E53 JUMP JUMPDEST DUP2 MSTORE PUSH1 0x20 DUP1 DUP3 ADD SWAP3 SWAP1 SWAP3 MSTORE PUSH1 0x40 SWAP1 DUP2 ADD PUSH1 0x0 SWAP1 DUP2 KECCAK256 SLOAD DUP7 DUP3 MSTORE PUSH1 0x4 SWAP1 SWAP4 MSTORE KECCAK256 SSTORE JUMPDEST PUSH1 0x0 DUP4 DUP2 MSTORE PUSH1 0x3 PUSH1 0x20 MSTORE PUSH1 0x40 SWAP1 KECCAK256 SLOAD ISZERO PUSH2 0x1A96 JUMPI PUSH1 0x1 PUSH1 0x1 PUSH1 0xA0 SHL SUB DUP3 AND PUSH1 0x0 SWAP1 DUP2 MSTORE PUSH1 0x6 PUSH1 0x20 SWAP1 DUP2 MSTORE PUSH1 0x40 DUP1 DUP4 KECCAK256 SLOAD DUP7 DUP5 MSTORE PUSH1 0x4 DUP4 MSTORE DUP2 DUP5 KECCAK256 SLOAD PUSH1 0x3 SWAP1 SWAP4 MSTORE SWAP1 DUP4 KECCAK256 SLOAD SWAP1 SWAP3 SWAP2 SWAP1 PUSH2 0x1A20 SWAP1 DUP5 SWAP1 PUSH2 0x1E05 JUMP JUMPDEST PUSH2 0x1A2A SWAP2 SWAP1 PUSH2 0x1DCB JUMP JUMPDEST PUSH1 0x0 DUP7 DUP2 MSTORE PUSH1 0x4 PUSH1 0x20 SWAP1 DUP2 MSTORE PUSH1 0x40 SWAP2 DUP3 SWAP1 KECCAK256 SLOAD DUP3 MLOAD DUP5 DUP2 MSTORE SWAP2 DUP3 ADD DUP10 SWAP1 MSTORE DUP2 DUP4 ADD DUP7 SWAP1 MSTORE PUSH1 0x60 DUP3 ADD MSTORE SWAP1 MLOAD SWAP2 SWAP3 POP PUSH1 0x1 PUSH1 0x1 PUSH1 0xA0 SHL SUB DUP7 AND SWAP2 PUSH32 0xC652E5A6FBF70DB834261CC5FA689D2B62011AE542C2C79939010DED9FDCA2A7 SWAP2 DUP2 SWAP1 SUB PUSH1 0x80 ADD SWAP1 LOG2 SWAP2 POP PUSH2 0x1A9A SWAP1 POP JUMP JUMPDEST POP PUSH1 0x0 JUMPDEST SWAP3 SWAP2 POP POP JUMP JUMPDEST PUSH1 0x40 DUP1 MLOAD PUSH2 0x100 DUP2 ADD DUP3 MSTORE PUSH1 0x0 DUP1 DUP3 MSTORE PUSH1 0x20 DUP3 ADD DUP2 SWAP1 MSTORE SWAP2 DUP2 ADD DUP3 SWAP1 MSTORE PUSH1 0x60 DUP2 ADD DUP3 SWAP1 MSTORE PUSH1 0x80 DUP2 ADD DUP3 SWAP1 MSTORE PUSH1 0xA0 DUP2 ADD DUP3 SWAP1 MSTORE PUSH1 0xC0 DUP2 ADD DUP3 SWAP1 MSTORE PUSH1 0xE0 DUP2 ADD SWAP2 SWAP1 SWAP2 MSTORE SWAP1 JUMP JUMPDEST DUP1 CALLDATALOAD PUSH1 0x1 PUSH1 0x1 PUSH1 0xA0 SHL SUB DUP2 AND DUP2 EQ PUSH2 0x12D5 JUMPI PUSH1 0x0 DUP1 REVERT JUMPDEST DUP1 CALLDATALOAD PUSH1 0x1 PUSH1 0x1 PUSH1 0xC0 SHL SUB NOT DUP2 AND DUP2 EQ PUSH2 0x12D5 JUMPI PUSH1 0x0 DUP1 REVERT JUMPDEST DUP1 CALLDATALOAD PUSH4 0xFFFFFFFF DUP2 AND DUP2 EQ PUSH2 0x12D5 JUMPI PUSH1 0x0 DUP1 REVERT JUMPDEST PUSH1 0x0 PUSH1 0x20 DUP3 DUP5 SUB SLT ISZERO PUSH2 0x1B38 JUMPI DUP1 DUP2 REVERT JUMPDEST PUSH2 0x1B41 DUP3 PUSH2 0x1AE4 JUMP JUMPDEST SWAP4 SWAP3 POP POP POP JUMP JUMPDEST PUSH1 0x0 DUP1 PUSH1 0x40 DUP4 DUP6 SUB SLT ISZERO PUSH2 0x1B5A JUMPI DUP1 DUP2 REVERT JUMPDEST PUSH2 0x1B63 DUP4 PUSH2 0x1AE4 JUMP JUMPDEST SWAP5 PUSH1 0x20 SWAP4 SWAP1 SWAP4 ADD CALLDATALOAD SWAP4 POP POP POP JUMP JUMPDEST PUSH1 0x0 DUP1 PUSH1 0x0 DUP1 PUSH1 0x80 DUP6 DUP8 SUB SLT ISZERO PUSH2 0x1B86 JUMPI DUP2 DUP3 REVERT JUMPDEST PUSH2 0x1B8F DUP6 PUSH2 0x1AFB JUMP JUMPDEST SWAP4 POP PUSH2 0x1B9D PUSH1 0x20 DUP7 ADD PUSH2 0x1AE4 JUMP JUMPDEST SWAP3 POP PUSH1 0x40 DUP6 ADD CALLDATALOAD SWAP2 POP PUSH2 0x1BB2 PUSH1 0x60 DUP7 ADD PUSH2 0x1B13 JUMP JUMPDEST SWAP1 POP SWAP3 SWAP6 SWAP2 SWAP5 POP SWAP3 POP JUMP JUMPDEST PUSH1 0x0 DUP1 PUSH1 0x0 DUP1 PUSH1 0x0 DUP1 PUSH1 0xC0 DUP8 DUP10 SUB SLT ISZERO PUSH2 0x1BD5 JUMPI DUP2 DUP3 REVERT JUMPDEST PUSH2 0x1BDE DUP8 PUSH2 0x1AFB JUMP JUMPDEST SWAP6 POP PUSH2 0x1BEC PUSH1 0x20 DUP9 ADD PUSH2 0x1AE4 JUMP JUMPDEST SWAP5 POP PUSH1 0x40 DUP8 ADD CALLDATALOAD SWAP4 POP PUSH2 0x1C01 PUSH1 0x60 DUP9 ADD PUSH2 0x1B13 JUMP JUMPDEST SWAP3 POP PUSH1 0x80 DUP8 ADD CALLDATALOAD SWAP2 POP PUSH1 0xA0 DUP8 ADD CALLDATALOAD SWAP1 POP SWAP3 SWAP6 POP SWAP3 SWAP6 POP SWAP3 SWAP6 JUMP JUMPDEST PUSH1 0x0 DUP1 PUSH1 0x0 PUSH1 0x60 DUP5 DUP7 SUB SLT ISZERO PUSH2 0x1C2F JUMPI DUP3 DUP4 REVERT JUMPDEST PUSH2 0x1C38 DUP5 PUSH2 0x1AFB JUMP JUMPDEST SWAP6 PUSH1 0x20 DUP6 ADD CALLDATALOAD SWAP6 POP PUSH1 0x40 SWAP1 SWAP5 ADD CALLDATALOAD SWAP4 SWAP3 POP POP POP JUMP JUMPDEST PUSH1 0x0 PUSH1 0x20 DUP3 DUP5 SUB SLT ISZERO PUSH2 0x1C5E JUMPI DUP1 DUP2 REVERT JUMPDEST POP CALLDATALOAD SWAP2 SWAP1 POP JUMP JUMPDEST PUSH1 0x0 DUP3 MLOAD DUP2 JUMPDEST DUP2 DUP2 LT ISZERO PUSH2 0x1C85 JUMPI PUSH1 0x20 DUP2 DUP7 ADD DUP2 ADD MLOAD DUP6 DUP4 ADD MSTORE ADD PUSH2 0x1C6B JUMP JUMPDEST DUP2 DUP2 GT ISZERO PUSH2 0x1C93 JUMPI DUP3 DUP3 DUP6 ADD MSTORE JUMPDEST POP SWAP2 SWAP1 SWAP2 ADD SWAP3 SWAP2 POP POP JUMP JUMPDEST PUSH1 0x20 DUP1 DUP3 MSTORE DUP3 MLOAD DUP3 DUP3 ADD DUP2 SWAP1 MSTORE PUSH1 0x0 SWAP2 SWAP1 PUSH1 0x40 SWAP1 DUP2 DUP6 ADD SWAP1 DUP7 DUP5 ADD DUP6 JUMPDEST DUP3 DUP2 LT ISZERO PUSH2 0x1D4B JUMPI DUP2 MLOAD DUP1 MLOAD PUSH1 0x1 PUSH1 0x1 PUSH1 0xC0 SHL SUB NOT AND DUP6 MSTORE DUP7 DUP2 ADD MLOAD PUSH1 0x1 PUSH1 0x1 PUSH1 0x40 SHL SUB SWAP1 DUP2 AND DUP9 DUP8 ADD MSTORE DUP7 DUP3 ADD MLOAD AND DUP7 DUP7 ADD MSTORE PUSH1 0x60 DUP1 DUP3 ADD MLOAD PUSH4 0xFFFFFFFF SWAP1 DUP2 AND SWAP2 DUP8 ADD SWAP2 SWAP1 SWAP2 MSTORE PUSH1 0x80 DUP1 DUP4 ADD MLOAD SWAP1 SWAP2 AND SWAP1 DUP7 ADD MSTORE PUSH1 0xA0 DUP1 DUP3 ADD MLOAD PUSH1 0x1 PUSH1 0x1 PUSH1 0xA0 SHL SUB AND SWAP1 DUP7 ADD MSTORE PUSH1 0xC0 DUP1 DUP3 ADD MLOAD SWAP1 DUP7 ADD MSTORE PUSH1 0xE0 SWAP1 DUP2 ADD MLOAD SWAP1 DUP6 ADD MSTORE PUSH2 0x100 SWAP1 SWAP4 ADD SWAP3 SWAP1 DUP6 ADD SWAP1 PUSH1 0x1 ADD PUSH2 0x1CBB JUMP JUMPDEST POP SWAP2 SWAP8 SWAP7 POP POP POP POP POP POP POP JUMP JUMPDEST PUSH1 0x1 PUSH1 0x1 PUSH1 0xC0 SHL SUB NOT SWAP5 SWAP1 SWAP5 AND DUP5 MSTORE PUSH1 0x1 PUSH1 0x1 PUSH1 0xA0 SHL SUB SWAP3 SWAP1 SWAP3 AND PUSH1 0x20 DUP5 ADD MSTORE PUSH1 0x40 DUP4 ADD MSTORE PUSH1 0x60 DUP3 ADD MSTORE PUSH1 0x80 ADD SWAP1 JUMP JUMPDEST PUSH1 0x0 DUP3 NOT DUP3 GT ISZERO PUSH2 0x1D9B JUMPI PUSH2 0x1D9B PUSH2 0x1E85 JUMP JUMPDEST POP ADD SWAP1 JUMP JUMPDEST PUSH1 0x0 PUSH1 0x1 PUSH1 0x1 PUSH1 0x40 SHL SUB DUP1 DUP4 AND DUP2 DUP6 AND DUP1 DUP4 SUB DUP3 GT ISZERO PUSH2 0x1DC2 JUMPI PUSH2 0x1DC2 PUSH2 0x1E85 JUMP JUMPDEST ADD SWAP5 SWAP4 POP POP POP POP JUMP JUMPDEST PUSH1 0x0 DUP3 PUSH2 0x1DDA JUMPI PUSH2 0x1DDA PUSH2 0x1E9B JUMP JUMPDEST POP DIV SWAP1 JUMP JUMPDEST PUSH1 0x0 PUSH1 0x1 PUSH1 0x1 PUSH1 0x40 SHL SUB DUP1 DUP5 AND DUP1 PUSH2 0x1DF9 JUMPI PUSH2 0x1DF9 PUSH2 0x1E9B JUMP JUMPDEST SWAP3 AND SWAP2 SWAP1 SWAP2 DIV SWAP3 SWAP2 POP POP JUMP JUMPDEST PUSH1 0x0 DUP2 PUSH1 0x0 NOT DIV DUP4 GT DUP3 ISZERO ISZERO AND ISZERO PUSH2 0x1E1F JUMPI PUSH2 0x1E1F PUSH2 0x1E85 JUMP JUMPDEST POP MUL SWAP1 JUMP JUMPDEST PUSH1 0x0 PUSH1 0x1 PUSH1 0x1 PUSH1 0x40 SHL SUB DUP1 DUP4 AND DUP2 DUP6 AND DUP2 DUP4 DIV DUP2 GT DUP3 ISZERO ISZERO AND ISZERO PUSH2 0x1E4A JUMPI PUSH2 0x1E4A PUSH2 0x1E85 JUMP JUMPDEST MUL SWAP5 SWAP4 POP POP POP POP JUMP JUMPDEST PUSH1 0x0 DUP3 DUP3 LT ISZERO PUSH2 0x1E65 JUMPI PUSH2 0x1E65 PUSH2 0x1E85 JUMP JUMPDEST POP SUB SWAP1 JUMP JUMPDEST PUSH1 0x0 PUSH1 0x0 NOT DUP3 EQ ISZERO PUSH2 0x1E7E JUMPI PUSH2 0x1E7E PUSH2 0x1E85 JUMP JUMPDEST POP PUSH1 0x1 ADD SWAP1 JUMP JUMPDEST PUSH4 0x4E487B71 PUSH1 0xE0 SHL PUSH1 0x0 MSTORE PUSH1 0x11 PUSH1 0x4 MSTORE PUSH1 0x24 PUSH1 0x0 REVERT JUMPDEST PUSH4 0x4E487B71 PUSH1 0xE0 SHL PUSH1 0x0 MSTORE PUSH1 0x12 PUSH1 0x4 MSTORE PUSH1 0x24 PUSH1 0x0 REVERT INVALID LOG2 PUSH5 0x6970667358 0x22 SLT KECCAK256 0x2C EQ EQ 0xA8 NOT REVERT DUP14 0xA6 SAR 0xD9 MSTORE8 0xE8 PUSH30 0xAD3363F4E19B5163E8B14CEDC90E4EFB4F898364736F6C63430008020033 ",
  "sha1": "f13db540a04930bddc48a71ece3630a3e6a7b9fe",
  "source": "// SPDX-License-Identifier: MIT\n\npragma solidity >=0.4.22 <0.9.0;\npragma experimental ABIEncoderV2;\n\nimport \"./AcriaMain.sol\";\n\n\ncontract AcriaNode {\n\n  struct request {\n\tbytes8 requestID;\n\tuint64 fee;\n\tuint64 expiration;\n\tuint32 id;\n\tuint32 max_gas;\n\taddress callback;\n\tuint256 data;\n\tuint256 data_passthrough;\n  }\n  \n  \n  event RequestFilled(bytes32 requestID, address callback, uint256 fee, uint256 id);\n  event RequestFilledError(bytes32 requestID, address callback, uint256 fee, uint256 id);\n  event StakePaidOut(address indexed by, uint256 amount, uint256 period, uint256 token, uint256 total_token);\n  \n  address public immutable token_contract;\n  \n  address payable public immutable owner;\n  address immutable master;\n  request[] requests;\n  uint256 public completedRequests = 0;\n  \n  uint256 withdrawable = 0;\n  mapping(uint256 => uint256) public withdrawable_stake;\n  mapping(uint256 => uint256) public period_staker;\n  mapping(address => uint256) public staker;\n  mapping(address => uint256) public staker_stake;\n  uint256 public last_staker_added = 0;\n  uint256 public previous_last_staker_added = 0;\n  uint256 constant period_interval = 1000;//10 for local tests, 1000 for testnet (~2 days), 10000 for mainnet (~16 days)\n  \n  \n  constructor(address payable _owner, address _token_contract) {\n  \towner = _owner;\n  \tmaster = msg.sender;\n  \ttoken_contract = _token_contract;\n  }\n\n\n  modifier restricted() {\n    require(\n      msg.sender == owner,\n      \"Restricted to contract owner\"\n    );\n    _;\n  }\n  \n  \n  function get_total_stake(uint256 period) public view returns (uint256){\n  \tif(period == 0){\n  \t\treturn period_staker[last_staker_added];\n  \t}\n  \telse{\n  \t\treturn period_staker[period];\n  \t}\n  }\n\n\n  function pump_fee(uint256 id) public payable {\n  \trequire(msg.value < 10**18);\n  \trequire(msg.value > 0);\n  \trequire(msg.value + requests[id].fee < 10**18);\n  \trequire(requests[id].expiration != 0);\n  \t\n  \trequests[id].fee += uint64(msg.value);\n  }\n  \n  \n  function create_request(bytes8 _requestID, address callback, uint256 _expire, uint32 max_gas) public payable {\n    require(_expire > 100);\n    require(msg.value < 10**18);\n    require(_expire < 1000000);\n    require(max_gas < 500000);\n    \n    request memory new_request;\n    new_request.requestID = _requestID;\n    new_request.fee = uint64(msg.value);\n    new_request.expiration = uint64(block.number + _expire);\n    new_request.callback = callback;\n    new_request.id = uint32(requests.length);\n    new_request.max_gas = uint32(max_gas);\n    requests.push(new_request);\n  }\n  \n  \n  function create_request_with_data(bytes8 _requestID, address callback, uint256 _expire, uint32 max_gas, uint256 _data, uint256 _data_passthrough) public payable {\n    require(_expire > 100);\n    require(msg.value < 10**18);\n    require(_expire < 1000000);\n    require(max_gas < 500000);\n    \n    request memory new_request;\n    new_request.requestID = _requestID;\n    new_request.fee = uint64(msg.value);\n    new_request.expiration = uint64(block.number + _expire);\n    new_request.callback = callback;\n    new_request.id = uint32(requests.length);\n    new_request.max_gas = uint32(max_gas);\n    if(_data != 0)\n    \tnew_request.data = _data;\n    if(_data_passthrough != 0)\n    \tnew_request.data_passthrough = _data_passthrough;\n    requests.push(new_request);\n  }\n  \n  \n  function withdraw() public restricted{\n  \tuint256 w = withdrawable;\n  \twithdrawable = 0;\n  \t\n  \towner.transfer(w);\n  }\n  \n  \n  function start_stake(address initiator, uint256 balance) public {\n  \trequire(msg.sender == token_contract, \"Initiated by wrong contract\");\n  \trequire(staker[initiator] == 0, \"Already staking\");\n  \trequire(balance > 0, \"No Tokens\");\n  \t\n  \tuint256 join_period = block.number/period_interval+1;\n  \t\n  \tstaker[initiator] = join_period;\n  \tif(period_staker[join_period] == 0){\n  \t\tif(last_staker_added != 0 && last_staker_added != join_period){\n  \t\t\tperiod_staker[join_period] = period_staker[last_staker_added];\n  \t\t}\n  \t}\n  \t\n  \tuint256 bal = balance;\n  \tperiod_staker[join_period] += bal;\n  \tstaker_stake[initiator] = bal;\n  \t\n  \tif(last_staker_added != join_period){\n\t  \tprevious_last_staker_added = last_staker_added;\n\t  \tlast_staker_added = join_period;\n  \t}\n  }\n  \n  \n  function cancel_stake_withdraw(address initiator) public {\n  \tif(block.number/period_interval-1 >= staker[initiator])\n  \t\tpayout_stakes(initiator);\n  \tcancel_stake(initiator);\n  }\n  \n  \n  function cancel_stake(address initiator) public {\n  \trequire(msg.sender == token_contract);\n  \trequire(staker[initiator] != 0);\n  \t\n  \tuint256 join_period = block.number/period_interval+1;\n  \t\n  \tif(period_staker[block.number/period_interval] == 0){\n  \t\tif(last_staker_added == join_period){\n\t  \t\tif(previous_last_staker_added != 0){\n\t  \t\t\tperiod_staker[block.number/period_interval] = period_staker[previous_last_staker_added];\n\t  \t\t}\n  \t\t}\n  \t\telse{\n  \t\t\tif(last_staker_added != 0){\n\t  \t\t\tperiod_staker[block.number/period_interval] = period_staker[last_staker_added];\n\t  \t\t}\n  \t\t}\n  \t}\n  \tif(period_staker[join_period] == 0){\n  \t\tif(last_staker_added != 0 && last_staker_added != join_period){\n  \t\t\tperiod_staker[join_period] = period_staker[last_staker_added];\n  \t\t}\n  \t}\n  \t\n  \tif(last_staker_added != join_period){\n\t  \tprevious_last_staker_added = last_staker_added;\n\t  \tlast_staker_added = join_period;\n  \t}\n  \t\n  \tuint256 bal = staker_stake[initiator];\n  \tperiod_staker[join_period] -= bal;\n  \tif(staker[initiator] <= join_period-1){\n  \t\tperiod_staker[join_period-1] -= bal;\n  \t\tprevious_last_staker_added = join_period-1;\n  \t\t\n  \t\tif(period_staker[join_period-1] == 0){\n  \t\t\twithdrawable += withdrawable_stake[join_period-1];\n  \t\t}\n  \t}\n  \tstaker_stake[initiator] = 0;\n  \t\n  \tstaker[initiator] = 0;\n  \t\n  }\n  \n  \n  function payout_stake(uint256 period, address initiator) private returns (uint256){\n  \tif(period_staker[period] == 0){\n  \t\tif(period_staker[period-1] != 0){\n  \t\t\tperiod_staker[period] = period_staker[period-1];\n  \t\t}\n  \t}\n  \t\n  \tif(withdrawable_stake[period] > 0){\n\t  \tuint256 user_stake = staker_stake[initiator];\n\t  \t\n\t  \tuint256 payout = withdrawable_stake[period]*user_stake/period_staker[period];\n\n\t  \temit StakePaidOut(initiator, payout, period, user_stake, period_staker[period]);\n\t  \t\n\t  \treturn payout;\n  \t}\n  \telse{\n  \t\treturn 0;\n  \t}\n  }\n  \n  \n  function payout_stakes(address initiator) public {\n  \trequire(staker[initiator] != 0, \"Not a staker\");\n  \trequire(block.number/period_interval-1 >= staker[initiator], \"No full cicle staked\");\n  \t\n  \tuint256 total_payout = 0;\n  \t\n  \tfor(uint256 i = staker[initiator]; i<=block.number/period_interval-1;i++){\n  \t\ttotal_payout += payout_stake(i, initiator);\n  \t}\n  \t\n  \tstaker[initiator] = block.number/period_interval;\n\t  \t\n\tpayable(initiator).transfer(total_payout);\n  }\n  \n  \n  function fillRequest(bytes8 _requestID, uint256 value, uint256 i) public restricted{    \n    \trequire(requests[i].requestID == _requestID);\n    \t\n    \tbool staker_is_active = false;\n    \tif(period_staker[block.number/period_interval] == 0){\n  \t\tif(last_staker_added == block.number/period_interval+1){\n\t  \t\tif(previous_last_staker_added != 0){\n\t  \t\t\tif(period_staker[previous_last_staker_added] != 0)\n\t  \t\t\t\tstaker_is_active = true;\n\t  \t\t}\n  \t\t}\n  \t\telse{\n  \t\t\tif(last_staker_added != 0){\n\t  \t\t\tif(period_staker[last_staker_added] != 0)\n\t  \t\t\t staker_is_active = true;\n\t  \t\t}\n  \t\t}\n  \t}\n  \telse{\n  \t\tstaker_is_active = true;\n  \t}\n    \t\n\t\tif(requests[i].expiration >= block.number){\n\t\t    address callback = requests[i].callback;\n\t\t    uint256 fee = requests[i].fee/10*8;\n\t\t    uint32 max_gas = requests[i].max_gas;\n\t\t    uint256 data = requests[i].data;\n\t\t    uint256 data_passthrough = requests[i].data_passthrough;\n\t\t    \n\t\t    if(staker_is_active)\n\t\t    \twithdrawable_stake[block.number/period_interval] += requests[i].fee - fee;\n\t\t    else\n\t\t    \tfee += requests[i].fee - fee;\n\t\t\t    \t\n\t            withdrawable += fee;\n\t\t    \n\t\t    delete requests[i];\n\t\t    completedRequests++;\n\t\t    \n\t\t    bool success;\n\t\t    if(data == 0 && data_passthrough == 0)\n\t\t    \t(success, ) = callback.call{gas:max_gas}(abi.encodeWithSignature(\"value_callback(uint256)\", value));\n\t\t    else\n\t\t    \t(success, ) = callback.call{gas:max_gas}(abi.encodeWithSignature(\"value_callback(uint256,uint256,uint256)\", value, data, data_passthrough));\n\t\t    \t\n\t\t    if(!success) {\n\t\t\t    emit RequestFilledError(_requestID, callback, fee, i);\n\t\t    }\n\t\t    else{\n\t\t    \temit RequestFilled(_requestID, callback, fee, i);\n\t\t    }\n\t\t    \n\t\t \n\t\t}\n\t\telse{\n\t\t    if(staker_is_active)\n\t\t    \twithdrawable_stake[block.number/period_interval] += requests[i].fee;\n\t\t    else\n\t\t        withdrawable += requests[i].fee;\n\t\t    delete requests[i];\n\t\t}\n\t\n    }\n  \n  \n  function get_requests() public view returns(request[] memory) {\n    return requests;\n    \n  }\n  \n\n  function get_withdrawable() public view returns(uint256) {\n    return withdrawable;\n    \n  }\n  \n  \n}\n",
  "sourcePath": "contracts/contracts/AcriaNode.sol",
  "type": "contract"
}