{
  "contractName": "AcriaMain",
  "abi": [
    {
      "constant": true,
      "inputs": [],
      "name": "owner",
      "outputs": [
        {
          "internalType": "address",
          "name": "",
          "type": "address"
        }
      ],
      "payable": false,
      "stateMutability": "view",
      "type": "function"
    },
    {
      "constant": false,
      "inputs": [
        {
          "internalType": "bytes32",
          "name": "_owner",
          "type": "bytes32"
        }
      ],
      "name": "createNode",
      "outputs": [],
      "payable": false,
      "stateMutability": "nonpayable",
      "type": "function"
    },
    {
      "constant": false,
      "inputs": [
        {
          "internalType": "address",
          "name": "_node",
          "type": "address"
        },
        {
          "internalType": "bytes32",
          "name": "requestID",
          "type": "bytes32"
        },
        {
          "internalType": "uint256",
          "name": "expire",
          "type": "uint256"
        },
        {
          "internalType": "address",
          "name": "_callback",
          "type": "address"
        }
      ],
      "name": "getField",
      "outputs": [],
      "payable": false,
      "stateMutability": "nonpayable",
      "type": "function"
    },
    {
      "constant": true,
      "inputs": [
        {
          "internalType": "address",
          "name": "_node",
          "type": "address"
        }
      ],
      "name": "is_node",
      "outputs": [
        {
          "internalType": "bool",
          "name": "",
          "type": "bool"
        }
      ],
      "payable": false,
      "stateMutability": "view",
      "type": "function"
    },
    {
      "constant": true,
      "inputs": [],
      "name": "get_nodes",
      "outputs": [
        {
          "components": [
            {
              "internalType": "address",
              "name": "location",
              "type": "address"
            },
            {
              "internalType": "bytes32",
              "name": "owner",
              "type": "bytes32"
            }
          ],
          "internalType": "struct AcriaMain.node[]",
          "name": "",
          "type": "tuple[]"
        }
      ],
      "payable": false,
      "stateMutability": "view",
      "type": "function"
    }
  ],
  "bytecode": "0x6080604052336000806101000a81548173ffffffffffffffffffffffffffffffffffffffff021916908373ffffffffffffffffffffffffffffffffffffffff16021790555034801561005057600080fd5b50611e47806100606000396000f3fe608060405234801561001057600080fd5b50600436106100575760003560e01c8063134dbac51461005c5780631cd23fd91461007a57806359cb18d4146100965780638da5cb5b146100b2578063ce7e6847146100d0575b600080fd5b610064610100565b60405161007191906106e3565b60405180910390f35b610094600480360361008f9190810190610576565b6101bf565b005b6100b060048036036100ab9190810190610513565b610368565b005b6100ba6103f0565b6040516100c791906106ad565b60405180910390f35b6100ea60048036036100e591908101906104ea565b610415565b6040516100f79190610705565b60405180910390f35b60606001805480602002602001604051908101604052809291908181526020016000905b828210156101b657838290600052602060002090600202016040518060400160405290816000820160009054906101000a900473ffffffffffffffffffffffffffffffffffffffff1673ffffffffffffffffffffffffffffffffffffffff1673ffffffffffffffffffffffffffffffffffffffff16815260200160018201548152505081526020019060010190610124565b50505050905090565b600015156003600083815260200190815260200160002060009054906101000a900460ff161515146101f057600080fd5b6000336040516101ff9061046b565b61020991906106c8565b604051809103906000f080158015610225573d6000803e3d6000fd5b509050610230610478565b60405180604001604052808373ffffffffffffffffffffffffffffffffffffffff1681526020018481525090506001819080600181540180825580915050906001820390600052602060002090600202016000909192909190915060008201518160000160006101000a81548173ffffffffffffffffffffffffffffffffffffffff021916908373ffffffffffffffffffffffffffffffffffffffff160217905550602082015181600101555050506001600260008473ffffffffffffffffffffffffffffffffffffffff1673ffffffffffffffffffffffffffffffffffffffff16815260200190815260200160002060006101000a81548160ff02191690831515021790555060016003600085815260200190815260200160002060006101000a81548160ff021916908315150217905550505050565b600a821161037557600080fd5b60008490508073ffffffffffffffffffffffffffffffffffffffff1663b393aecd8584866040518463ffffffff1660e01b81526004016103b793929190610720565b600060405180830381600087803b1580156103d157600080fd5b505af11580156103e5573d6000803e3d6000fd5b505050505050505050565b6000809054906101000a900473ffffffffffffffffffffffffffffffffffffffff1681565b6000600260008373ffffffffffffffffffffffffffffffffffffffff1673ffffffffffffffffffffffffffffffffffffffff16815260200190815260200160002060009054906101000a900460ff169050919050565b6115a78061085e83390190565b6040518060400160405280600073ffffffffffffffffffffffffffffffffffffffff168152602001600080191681525090565b6000813590506104ba81610818565b92915050565b6000813590506104cf8161082f565b92915050565b6000813590506104e481610846565b92915050565b6000602082840312156104fc57600080fd5b600061050a848285016104ab565b91505092915050565b6000806000806080858703121561052957600080fd5b6000610537878288016104ab565b9450506020610548878288016104c0565b9350506040610559878288016104d5565b925050606061056a878288016104ab565b91505092959194509250565b60006020828403121561058857600080fd5b6000610596848285016104c0565b91505092915050565b60006105ab838361066f565b60408301905092915050565b6105c0816107e2565b82525050565b6105cf81610790565b82525050565b6105de81610790565b82525050565b60006105ef82610767565b6105f9818561077f565b935061060483610757565b8060005b8381101561063557815161061c888261059f565b975061062783610772565b925050600181019050610608565b5085935050505092915050565b61064b816107a2565b82525050565b61065a816107ae565b82525050565b610669816107ae565b82525050565b60408201600082015161068560008501826105c6565b5060208201516106986020850182610651565b50505050565b6106a7816107d8565b82525050565b60006020820190506106c260008301846105d5565b92915050565b60006020820190506106dd60008301846105b7565b92915050565b600060208201905081810360008301526106fd81846105e4565b905092915050565b600060208201905061071a6000830184610642565b92915050565b60006060820190506107356000830186610660565b61074260208301856105d5565b61074f604083018461069e565b949350505050565b6000819050602082019050919050565b600081519050919050565b6000602082019050919050565b600082825260208201905092915050565b600061079b826107b8565b9050919050565b60008115159050919050565b6000819050919050565b600073ffffffffffffffffffffffffffffffffffffffff82169050919050565b6000819050919050565b60006107ed826107f4565b9050919050565b60006107ff82610806565b9050919050565b6000610811826107b8565b9050919050565b61082181610790565b811461082c57600080fd5b50565b610838816107ae565b811461084357600080fd5b50565b61084f816107d8565b811461085a57600080fd5b5056fe6080604052600060055560006006553480156200001b57600080fd5b50604051620015a7380380620015a78339818101604052620000419190810190620000e0565b806000806101000a81548173ffffffffffffffffffffffffffffffffffffffff021916908373ffffffffffffffffffffffffffffffffffffffff16021790555033600160006101000a81548173ffffffffffffffffffffffffffffffffffffffff021916908373ffffffffffffffffffffffffffffffffffffffff160217905550506200015a565b600081519050620000da8162000140565b92915050565b600060208284031215620000f357600080fd5b60006200010384828501620000c9565b91505092915050565b6000620001198262000120565b9050919050565b600073ffffffffffffffffffffffffffffffffffffffff82169050919050565b6200014b816200010c565b81146200015757600080fd5b50565b61143d806200016a6000396000f3fe608060405234801561001057600080fd5b506004361061007d5760003560e01c806379275fad1161005b57806379275fad146100d85780638da5cb5b146100f4578063b393aecd14610112578063b715c7061461012e5761007d565b806301ff927b146100825780632366cfbc1461009e578063455bfbf2146100ba575b600080fd5b61009c60048036036100979190810190610f60565b61014c565b005b6100b860048036036100b39190810190610f9c565b6107e5565b005b6100c2610a21565b6040516100cf919061124c565b60405180910390f35b6100f260048036036100ed9190810190610ee8565b610b05565b005b6100fc610bef565b604051610109919061120f565b60405180910390f35b61012c60048036036101279190810190610f11565b610c14565b005b610136610d72565b604051610143919061122a565b60405180910390f35b6000809054906101000a900473ffffffffffffffffffffffffffffffffffffffff1673ffffffffffffffffffffffffffffffffffffffff163373ffffffffffffffffffffffffffffffffffffffff16146101db576040517f08c379a00000000000000000000000000000000000000000000000000000000081526004016101d2906112a5565b60405180910390fd5b600043905060008090505b6004805490508110156107df57836004828154811061020157fe5b90600052602060002090600402016000015414156107d257816004828154811061022757fe5b906000526020600020906004020160020154101580156102765750600015156004828154811061025357fe5b906000526020600020906004020160010160009054906101000a900460ff161515145b156105cb5760006004828154811061028a57fe5b906000526020600020906004020160030160009054906101000a900473ffffffffffffffffffffffffffffffffffffffff1690508073ffffffffffffffffffffffffffffffffffffffff166327c1642e856040518263ffffffff1660e01b81526004016102f791906112c5565b600060405180830381600087803b15801561031157600080fd5b505af1158015610325573d6000803e3d6000fd5b505050507f80159d42b8a6ee3e969f3e2c24f97a6835bebbb529a24ca1fbb217e4f77012406004838154811061035757fe5b9060005260206000209060040201600001546004848154811061037657fe5b906000526020600020906004020160030160009054906101000a900473ffffffffffffffffffffffffffffffffffffffff16866040516103b89392919061126e565b60405180910390a181600160048054905003141561045457600482815481106103dd57fe5b90600052602060002090600402016000808201600090556001820160006101000a81549060ff021916905560028201600090556003820160006101000a81549073ffffffffffffffffffffffffffffffffffffffff02191690555050600480548091906001900361044e9190610dca565b506105c5565b60046001600480549050038154811061046957fe5b90600052602060002090600402016004838154811061048457fe5b9060005260206000209060040201600082015481600001556001820160009054906101000a900460ff168160010160006101000a81548160ff021916908315150217905550600282015481600201556003820160009054906101000a900473ffffffffffffffffffffffffffffffffffffffff168160030160006101000a81548173ffffffffffffffffffffffffffffffffffffffff021916908373ffffffffffffffffffffffffffffffffffffffff16021790555090505060046001600480549050038154811061055257fe5b90600052602060002090600402016000808201600090556001820160006101000a81549060ff021916905560028201600090556003820160006101000a81549073ffffffffffffffffffffffffffffffffffffffff0219169055505060048054809190600190036105c39190610dca565b505b506107d1565b80600160048054905003141561065f57600481815481106105e857fe5b90600052602060002090600402016000808201600090556001820160006101000a81549060ff021916905560028201600090556003820160006101000a81549073ffffffffffffffffffffffffffffffffffffffff0219169055505060048054809190600190036106599190610dca565b506107d0565b60046001600480549050038154811061067457fe5b90600052602060002090600402016004828154811061068f57fe5b9060005260206000209060040201600082015481600001556001820160009054906101000a900460ff168160010160006101000a81548160ff021916908315150217905550600282015481600201556003820160009054906101000a900473ffffffffffffffffffffffffffffffffffffffff168160030160006101000a81548173ffffffffffffffffffffffffffffffffffffffff021916908373ffffffffffffffffffffffffffffffffffffffff16021790555090505060046001600480549050038154811061075d57fe5b90600052602060002090600402016000808201600090556001820160006101000a81549060ff021916905560028201600090556003820160006101000a81549073ffffffffffffffffffffffffffffffffffffffff0219169055505060048054809190600190036107ce9190610dca565b505b5b5b80806001019150506101e6565b50505050565b6000809054906101000a900473ffffffffffffffffffffffffffffffffffffffff1673ffffffffffffffffffffffffffffffffffffffff163373ffffffffffffffffffffffffffffffffffffffff1614610874576040517f08c379a000000000000000000000000000000000000000000000000000000000815260040161086b906112a5565b60405180910390fd5b600043905060008390505b6004805490508110801561089257508281105b15610a195785600482815481106108a557fe5b9060005260206000209060040201600001541415610a0c5781600482815481106108cb57fe5b9060005260206000209060040201600201541015801561091a575060001515600482815481106108f757fe5b906000526020600020906004020160010160009054906101000a900460ff161515145b15610a0a5760006004828154811061092e57fe5b906000526020600020906004020160030160009054906101000a900473ffffffffffffffffffffffffffffffffffffffff1690508073ffffffffffffffffffffffffffffffffffffffff166327c1642e876040518263ffffffff1660e01b815260040161099b91906112c5565b600060405180830381600087803b1580156109b557600080fd5b505af11580156109c9573d6000803e3d6000fd5b505050506001600483815481106109dc57fe5b906000526020600020906004020160010160006101000a81548160ff02191690831515021790555050610a0b565b5b5b808060010191505061087f565b505050505050565b60606004805480602002602001604051908101604052809291908181526020016000905b82821015610afc5783829060005260206000209060040201604051806080016040529081600082015481526020016001820160009054906101000a900460ff16151515158152602001600282015481526020016003820160009054906101000a900473ffffffffffffffffffffffffffffffffffffffff1673ffffffffffffffffffffffffffffffffffffffff1673ffffffffffffffffffffffffffffffffffffffff168152505081526020019060010190610a45565b50505050905090565b6000809054906101000a900473ffffffffffffffffffffffffffffffffffffffff1673ffffffffffffffffffffffffffffffffffffffff163373ffffffffffffffffffffffffffffffffffffffff1614610b94576040517f08c379a0000000000000000000000000000000000000000000000000000000008152600401610b8b906112a5565b60405180910390fd5b60016002600083815260200190815260200160002060006101000a81548160ff021916908315150217905550600381908060018154018082558091505090600182039060005260206000200160009091929091909150555050565b6000809054906101000a900473ffffffffffffffffffffffffffffffffffffffff1681565b600160009054906101000a900473ffffffffffffffffffffffffffffffffffffffff1673ffffffffffffffffffffffffffffffffffffffff163373ffffffffffffffffffffffffffffffffffffffff1614610c6e57600080fd5b600043905060008282019050610c82610dfc565b60405180608001604052808781526020016000151581526020018381526020018673ffffffffffffffffffffffffffffffffffffffff168152509050600481908060018154018082558091505090600182039060005260206000209060040201600090919290919091506000820151816000015560208201518160010160006101000a81548160ff0219169083151502179055506040820151816002015560608201518160030160006101000a81548173ffffffffffffffffffffffffffffffffffffffff021916908373ffffffffffffffffffffffffffffffffffffffff160217905550505050505050505050565b60606003805480602002602001604051908101604052809291908181526020018280548015610dc057602002820191906000526020600020905b815481526020019060010190808311610dac575b5050505050905090565b815481835581811115610df757600402816004028360005260206000209182019101610df69190610e3f565b5b505050565b60405180608001604052806000801916815260200160001515815260200160008152602001600073ffffffffffffffffffffffffffffffffffffffff1681525090565b610ea691905b80821115610ea2576000808201600090556001820160006101000a81549060ff021916905560028201600090556003820160006101000a81549073ffffffffffffffffffffffffffffffffffffffff021916905550600401610e45565b5090565b90565b600081359050610eb8816113b5565b92915050565b600081359050610ecd816113cc565b92915050565b600081359050610ee2816113e3565b92915050565b600060208284031215610efa57600080fd5b6000610f0884828501610ebe565b91505092915050565b600080600060608486031215610f2657600080fd5b6000610f3486828701610ebe565b9350506020610f4586828701610ea9565b9250506040610f5686828701610ed3565b9150509250925092565b60008060408385031215610f7357600080fd5b6000610f8185828601610ebe565b9250506020610f9285828601610ed3565b9150509250929050565b60008060008060808587031215610fb257600080fd5b6000610fc087828801610ebe565b9450506020610fd187828801610ed3565b9350506040610fe287828801610ed3565b9250506060610ff387828801610ed3565b91505092959194509250565b600061100b8383611118565b60208301905092915050565b6000611023838361119c565b60808301905092915050565b61103881611363565b82525050565b61104781611363565b82525050565b600061105882611300565b6110628185611330565b935061106d836112e0565b8060005b8381101561109e5781516110858882610fff565b975061109083611316565b925050600181019050611071565b5085935050505092915050565b60006110b68261130b565b6110c08185611341565b93506110cb836112f0565b8060005b838110156110fc5781516110e38882611017565b97506110ee83611323565b9250506001810190506110cf565b5085935050505092915050565b61111281611375565b82525050565b61112181611381565b82525050565b61113081611381565b82525050565b6000611143603383611352565b91507f546869732066756e6374696f6e206973207265737472696374656420746f207460008301527f686520636f6e74726163742773206f776e6572000000000000000000000000006020830152604082019050919050565b6080820160008201516111b26000850182611118565b5060208201516111c56020850182611109565b5060408201516111d860408501826111f1565b5060608201516111eb606085018261102f565b50505050565b6111fa816113ab565b82525050565b611209816113ab565b82525050565b6000602082019050611224600083018461103e565b92915050565b60006020820190508181036000830152611244818461104d565b905092915050565b6000602082019050818103600083015261126681846110ab565b905092915050565b60006060820190506112836000830186611127565b611290602083018561103e565b61129d6040830184611200565b949350505050565b600060208201905081810360008301526112be81611136565b9050919050565b60006020820190506112da6000830184611200565b92915050565b6000819050602082019050919050565b6000819050602082019050919050565b600081519050919050565b600081519050919050565b6000602082019050919050565b6000602082019050919050565b600082825260208201905092915050565b600082825260208201905092915050565b600082825260208201905092915050565b600061136e8261138b565b9050919050565b60008115159050919050565b6000819050919050565b600073ffffffffffffffffffffffffffffffffffffffff82169050919050565b6000819050919050565b6113be81611363565b81146113c957600080fd5b50565b6113d581611381565b81146113e057600080fd5b50565b6113ec816113ab565b81146113f757600080fd5b5056fea365627a7a723158205f237f3afef52d918466b6e7cd07988d713f9e2f360c8fead5c90ec0d66baed96c6578706572696d656e74616cf564736f6c63430005100040a365627a7a723158207180bc497e611f1d8a4f6717bd91232841e894ee9045c1daa2d7ded324cff2c56c6578706572696d656e74616cf564736f6c63430005100040",
  "source": "pragma solidity >=0.4.22 <0.9.0;\npragma experimental ABIEncoderV2;\n\n\nimport \"./AcriaNode.sol\";\n\ncontract AcriaMain {\n\n  struct node{\n  \taddress location;\n  \tbytes32 owner;\n  }\n  \n  \n  address public owner = msg.sender;\n  \n  node[] nodes;\n  mapping(address => bool) node_active;\n  mapping(bytes32 => bool) name_exists;\n\n\n  modifier restricted() {\n    require(\n      msg.sender == owner,\n      \"This function is restricted to the contract's owner\"\n    );\n    _;\n  }\n\n\n  function createNode(bytes32 _owner) public {\n    require(name_exists[_owner] == false);\n    \n    AcriaNode acria_node = new AcriaNode(msg.sender);\n    \n    node memory new_node = node({location: address(acria_node), owner: _owner});\n    nodes.push(new_node);\n    \n    node_active[address(acria_node)] = true;\n    name_exists[_owner] = true;\n  }\n  \n  \n  function getField(address _node, bytes32 requestID, uint256 expire, address _callback) public {\n    require(expire > 10);\n    \n    AcriaNode acria_node = AcriaNode(_node);\n    \n    acria_node.create_request(requestID, _callback, expire);\n  }\n  \n  \n  function is_node(address _node) public view returns(bool) {\n    return node_active[_node];\n    \n  }\n  \n  function get_nodes() public view returns(node[] memory) {\n    return nodes;\n    \n  }\n  \n}\n",
  "sourcePath": "/home/a/Documents/acria_contracts/contracts/AcriaMain.sol",
  "compiler": {
    "name": "solc",
    "version": "0.5.16+commit.9c3226ce.Emscripten.clang"
  },
  "schemaVersion": "3.3.3",
  "updatedAt": "2021-02-22T17:51:21.789Z",
  "networkType": "ethereum",
  "devdoc": {
    "methods": {}
  },
  "userdoc": {
    "methods": {}
  }
}