{
  "abi": [
    {
      "inputs": [
        {
          "internalType": "address payable",
          "name": "_node",
          "type": "address"
        }
      ],
      "stateMutability": "nonpayable",
      "type": "constructor"
    },
    {
      "inputs": [],
      "name": "callOracle",
      "outputs": [],
      "stateMutability": "payable",
      "type": "function"
    },
    {
      "inputs": [
        {
          "internalType": "uint256",
          "name": "",
          "type": "uint256"
        }
      ],
      "name": "lastValue",
      "outputs": [
        {
          "internalType": "uint256",
          "name": "",
          "type": "uint256"
        }
      ],
      "stateMutability": "view",
      "type": "function"
    },
    {
      "inputs": [
        {
          "internalType": "uint256",
          "name": "_value",
          "type": "uint256"
        },
        {
          "internalType": "uint256",
          "name": "data",
          "type": "uint256"
        },
        {
          "internalType": "uint256",
          "name": "data_passthrough",
          "type": "uint256"
        }
      ],
      "name": "value_callback",
      "outputs": [],
      "stateMutability": "nonpayable",
      "type": "function"
    }
  ],
  "bytecode": "608060405234801561001057600080fd5b506040516102af3803806102af83398101604081905261002f91610054565b600080546001600160a01b0319166001600160a01b0392909216919091179055610082565b600060208284031215610065578081fd5b81516001600160a01b038116811461007b578182fd5b9392505050565b61021e806100916000396000f3fe6080604052600436106100345760003560e01c8063175fdc0c14610039578063764df6fa1461005b5780637b1b71661461009a575b600080fd5b34801561004557600080fd5b50610059610054366004610196565b6100a2565b005b34801561006757600080fd5b5061008861007636600461017e565b60016020526000908152604090205481565b60405190815260200160405180910390f35b6100596100ce565b6000546001600160a01b031633146100b957600080fd5b60009081526001602052604090209190915550565b6000546002546040516370762d2f60e01b81526605553442f4742560cc1b6004820152306024820152612710604482015261c350606482015242608482015260a48101919091526001600160a01b03909116906370762d2f90620186a090349060c4016000604051808303818589803b15801561014a57600080fd5b5088f115801561015e573d6000803e3d6000fd5b50505050505060026000815480929190610177906101c1565b9190505550565b60006020828403121561018f578081fd5b5035919050565b6000806000606084860312156101aa578182fd5b505081359360208301359350604090920135919050565b60006000198214156101e157634e487b7160e01b81526011600452602481fd5b506001019056fea26469706673582212209509b45f5543f572483dea8ef82354d600a810af9adca6e92e8acf731f8e15b264736f6c63430008020033",
  "bytecodeSha1": "505e0f90de5837c658b3ae82a372f8699181455a",
  "compiler": {
    "evm_version": "istanbul",
    "optimizer": {
      "enabled": true,
      "runs": 200
    },
    "version": "0.8.2+commit.661d1103"
  },
  "contractName": "ClientExample3",
  "language": "Solidity",
  "natspec": {
    "kind": "dev",
    "methods": {},
    "version": 1
  },
  "opcodes": "PUSH1 0x80 PUSH1 0x40 MSTORE PUSH1 0x4 CALLDATASIZE LT PUSH2 0x34 JUMPI PUSH1 0x0 CALLDATALOAD PUSH1 0xE0 SHR DUP1 PUSH4 0x175FDC0C EQ PUSH2 0x39 JUMPI DUP1 PUSH4 0x764DF6FA EQ PUSH2 0x5B JUMPI DUP1 PUSH4 0x7B1B7166 EQ PUSH2 0x9A JUMPI JUMPDEST PUSH1 0x0 DUP1 REVERT JUMPDEST CALLVALUE DUP1 ISZERO PUSH2 0x45 JUMPI PUSH1 0x0 DUP1 REVERT JUMPDEST POP PUSH2 0x59 PUSH2 0x54 CALLDATASIZE PUSH1 0x4 PUSH2 0x196 JUMP JUMPDEST PUSH2 0xA2 JUMP JUMPDEST STOP JUMPDEST CALLVALUE DUP1 ISZERO PUSH2 0x67 JUMPI PUSH1 0x0 DUP1 REVERT JUMPDEST POP PUSH2 0x88 PUSH2 0x76 CALLDATASIZE PUSH1 0x4 PUSH2 0x17E JUMP JUMPDEST PUSH1 0x1 PUSH1 0x20 MSTORE PUSH1 0x0 SWAP1 DUP2 MSTORE PUSH1 0x40 SWAP1 KECCAK256 SLOAD DUP2 JUMP JUMPDEST PUSH1 0x40 MLOAD SWAP1 DUP2 MSTORE PUSH1 0x20 ADD PUSH1 0x40 MLOAD DUP1 SWAP2 SUB SWAP1 RETURN JUMPDEST PUSH2 0x59 PUSH2 0xCE JUMP JUMPDEST PUSH1 0x0 SLOAD PUSH1 0x1 PUSH1 0x1 PUSH1 0xA0 SHL SUB AND CALLER EQ PUSH2 0xB9 JUMPI PUSH1 0x0 DUP1 REVERT JUMPDEST PUSH1 0x0 SWAP1 DUP2 MSTORE PUSH1 0x1 PUSH1 0x20 MSTORE PUSH1 0x40 SWAP1 KECCAK256 SWAP2 SWAP1 SWAP2 SSTORE POP JUMP JUMPDEST PUSH1 0x0 SLOAD PUSH1 0x2 SLOAD PUSH1 0x40 MLOAD PUSH4 0x70762D2F PUSH1 0xE0 SHL DUP2 MSTORE PUSH7 0x5553442F47425 PUSH1 0xCC SHL PUSH1 0x4 DUP3 ADD MSTORE ADDRESS PUSH1 0x24 DUP3 ADD MSTORE PUSH2 0x2710 PUSH1 0x44 DUP3 ADD MSTORE PUSH2 0xC350 PUSH1 0x64 DUP3 ADD MSTORE TIMESTAMP PUSH1 0x84 DUP3 ADD MSTORE PUSH1 0xA4 DUP2 ADD SWAP2 SWAP1 SWAP2 MSTORE PUSH1 0x1 PUSH1 0x1 PUSH1 0xA0 SHL SUB SWAP1 SWAP2 AND SWAP1 PUSH4 0x70762D2F SWAP1 PUSH3 0x186A0 SWAP1 CALLVALUE SWAP1 PUSH1 0xC4 ADD PUSH1 0x0 PUSH1 0x40 MLOAD DUP1 DUP4 SUB DUP2 DUP6 DUP10 DUP1 EXTCODESIZE ISZERO DUP1 ISZERO PUSH2 0x14A JUMPI PUSH1 0x0 DUP1 REVERT JUMPDEST POP DUP9 CALL ISZERO DUP1 ISZERO PUSH2 0x15E JUMPI RETURNDATASIZE PUSH1 0x0 DUP1 RETURNDATACOPY RETURNDATASIZE PUSH1 0x0 REVERT JUMPDEST POP POP POP POP POP POP PUSH1 0x2 PUSH1 0x0 DUP2 SLOAD DUP1 SWAP3 SWAP2 SWAP1 PUSH2 0x177 SWAP1 PUSH2 0x1C1 JUMP JUMPDEST SWAP2 SWAP1 POP SSTORE POP JUMP JUMPDEST PUSH1 0x0 PUSH1 0x20 DUP3 DUP5 SUB SLT ISZERO PUSH2 0x18F JUMPI DUP1 DUP2 REVERT JUMPDEST POP CALLDATALOAD SWAP2 SWAP1 POP JUMP JUMPDEST PUSH1 0x0 DUP1 PUSH1 0x0 PUSH1 0x60 DUP5 DUP7 SUB SLT ISZERO PUSH2 0x1AA JUMPI DUP2 DUP3 REVERT JUMPDEST POP POP DUP2 CALLDATALOAD SWAP4 PUSH1 0x20 DUP4 ADD CALLDATALOAD SWAP4 POP PUSH1 0x40 SWAP1 SWAP3 ADD CALLDATALOAD SWAP2 SWAP1 POP JUMP JUMPDEST PUSH1 0x0 PUSH1 0x0 NOT DUP3 EQ ISZERO PUSH2 0x1E1 JUMPI PUSH4 0x4E487B71 PUSH1 0xE0 SHL DUP2 MSTORE PUSH1 0x11 PUSH1 0x4 MSTORE PUSH1 0x24 DUP2 REVERT JUMPDEST POP PUSH1 0x1 ADD SWAP1 JUMP INVALID LOG2 PUSH5 0x6970667358 0x22 SLT KECCAK256 SWAP6 MULMOD 0xB4 0x5F SSTORE NUMBER CREATE2 PUSH19 0x483DEA8EF82354D600A810AF9ADCA6E92E8ACF PUSH20 0x1F8E15B264736F6C634300080200330000000000 ",
  "sha1": "aa58fc9df256cf9469799b813762cf29fa3112d2",
  "source": "// SPDX-License-Identifier: MIT\n\npragma solidity >=0.4.22 <0.9.0;\n\n\ninterface AcriaNode {\n    function create_request_with_data(bytes8 _requestID, address callback, uint256 _expire, uint32 max_gas, uint256 _data, uint256 _data_passthrough) external payable;\n}\n\ncontract ClientExample3 {\n    //The address of the targeted Oracle Node\n    address payable node;\n\n    //last most recent value received via a callback\n    mapping(uint256 => uint256) public lastValue;\n    \n    uint256 counter;\n\n    constructor(address payable _node) {\n        node = _node;\n    }\n\n    function callOracle() public payable{\n        //make a call to the Oracle Node and include the fee (all ETH provided)\n        //1. parameter is the item requested in this case the USD/GBP exchange rate\n        //2. parameter is the callback address (this contract)\n        //3. parameter is the request expire date. It is expressed in blocks until the request should be dropped.\n        //4. parameter is the amount of gas the oracle node should provide for the callback. The higher the requested gas the higher should be the fee provided.\n        //5. parameter is the request data which further specifies the data needed (here: the current timestamp)\n        //6. parameter is the passthrough data which will be passed through to the callback function (see third parameter of the callback)\n        AcriaNode(node).create_request_with_data{value: msg.value, gas: 100000}(\"USD/GBP\", address(this), 10000, 50000, block.timestamp, counter);\n        \n        counter++;\n    }\n    \n    //the function which gets called by the Oracle Node\n    //it must be named value_callback with exactly three uint256 as parameter\n    function value_callback(uint256 _value, uint256 data, uint256 data_passthrough) public{\n        //only the Oracle Node is allowed to call this function\n        require(msg.sender == node);\n\n        //update the value\n        lastValue[data_passthrough] = _value;\n    }\n}\n",
  "sourcePath": "contracts/contracts/clientContract/clientExample3.sol",
  "type": "contract"
}