{
  "abi": [
    {
      "inputs": [
        {
          "internalType": "address payable",
          "name": "_node",
          "type": "address"
        }
      ],
      "stateMutability": "nonpayable",
      "type": "constructor"
    },
    {
      "inputs": [],
      "name": "callOracle",
      "outputs": [],
      "stateMutability": "payable",
      "type": "function"
    },
    {
      "inputs": [],
      "name": "lastValue",
      "outputs": [
        {
          "internalType": "uint256",
          "name": "",
          "type": "uint256"
        }
      ],
      "stateMutability": "view",
      "type": "function"
    },
    {
      "inputs": [
        {
          "internalType": "uint256",
          "name": "_value",
          "type": "uint256"
        }
      ],
      "name": "value_callback",
      "outputs": [],
      "stateMutability": "nonpayable",
      "type": "function"
    }
  ],
  "bytecode": "608060405234801561001057600080fd5b5060405161020d38038061020d83398101604081905261002f91610054565b600080546001600160a01b0319166001600160a01b0392909216919091179055610082565b600060208284031215610065578081fd5b81516001600160a01b038116811461007b578182fd5b9392505050565b61017c806100916000396000f3fe6080604052600436106100345760003560e01c806327c1642e14610039578063431838341461005b5780637b1b716614610083575b600080fd5b34801561004557600080fd5b5061005961005436600461012e565b61008b565b005b34801561006757600080fd5b5061007160015481565b60405190815260200160405180910390f35b6100596100a7565b6000546001600160a01b031633146100a257600080fd5b600155565b600054604051638d4b322360e01b81526605553442f4742560cc1b6004820152306024820152612710604482015261c35060648201526001600160a01b0390911690638d4b322390620186a09034906084016000604051808303818589803b15801561011257600080fd5b5088f1158015610126573d6000803e3d6000fd5b505050505050565b60006020828403121561013f578081fd5b503591905056fea2646970667358221220845cee992def0df88820c2d4496fc824df0ae85cb8804aa5a567052b71d92c5d64736f6c63430008020033",
  "bytecodeSha1": "1028b305748d720a966e35fdf939bfbf7078ba54",
  "compiler": {
    "evm_version": "istanbul",
    "optimizer": {
      "enabled": true,
      "runs": 200
    },
    "version": "0.8.2+commit.661d1103"
  },
  "contractName": "ClientExample2",
  "language": "Solidity",
  "natspec": {
    "kind": "dev",
    "methods": {},
    "version": 1
  },
  "opcodes": "PUSH1 0x80 PUSH1 0x40 MSTORE PUSH1 0x4 CALLDATASIZE LT PUSH2 0x34 JUMPI PUSH1 0x0 CALLDATALOAD PUSH1 0xE0 SHR DUP1 PUSH4 0x27C1642E EQ PUSH2 0x39 JUMPI DUP1 PUSH4 0x43183834 EQ PUSH2 0x5B JUMPI DUP1 PUSH4 0x7B1B7166 EQ PUSH2 0x83 JUMPI JUMPDEST PUSH1 0x0 DUP1 REVERT JUMPDEST CALLVALUE DUP1 ISZERO PUSH2 0x45 JUMPI PUSH1 0x0 DUP1 REVERT JUMPDEST POP PUSH2 0x59 PUSH2 0x54 CALLDATASIZE PUSH1 0x4 PUSH2 0x12E JUMP JUMPDEST PUSH2 0x8B JUMP JUMPDEST STOP JUMPDEST CALLVALUE DUP1 ISZERO PUSH2 0x67 JUMPI PUSH1 0x0 DUP1 REVERT JUMPDEST POP PUSH2 0x71 PUSH1 0x1 SLOAD DUP2 JUMP JUMPDEST PUSH1 0x40 MLOAD SWAP1 DUP2 MSTORE PUSH1 0x20 ADD PUSH1 0x40 MLOAD DUP1 SWAP2 SUB SWAP1 RETURN JUMPDEST PUSH2 0x59 PUSH2 0xA7 JUMP JUMPDEST PUSH1 0x0 SLOAD PUSH1 0x1 PUSH1 0x1 PUSH1 0xA0 SHL SUB AND CALLER EQ PUSH2 0xA2 JUMPI PUSH1 0x0 DUP1 REVERT JUMPDEST PUSH1 0x1 SSTORE JUMP JUMPDEST PUSH1 0x0 SLOAD PUSH1 0x40 MLOAD PUSH4 0x8D4B3223 PUSH1 0xE0 SHL DUP2 MSTORE PUSH7 0x5553442F47425 PUSH1 0xCC SHL PUSH1 0x4 DUP3 ADD MSTORE ADDRESS PUSH1 0x24 DUP3 ADD MSTORE PUSH2 0x2710 PUSH1 0x44 DUP3 ADD MSTORE PUSH2 0xC350 PUSH1 0x64 DUP3 ADD MSTORE PUSH1 0x1 PUSH1 0x1 PUSH1 0xA0 SHL SUB SWAP1 SWAP2 AND SWAP1 PUSH4 0x8D4B3223 SWAP1 PUSH3 0x186A0 SWAP1 CALLVALUE SWAP1 PUSH1 0x84 ADD PUSH1 0x0 PUSH1 0x40 MLOAD DUP1 DUP4 SUB DUP2 DUP6 DUP10 DUP1 EXTCODESIZE ISZERO DUP1 ISZERO PUSH2 0x112 JUMPI PUSH1 0x0 DUP1 REVERT JUMPDEST POP DUP9 CALL ISZERO DUP1 ISZERO PUSH2 0x126 JUMPI RETURNDATASIZE PUSH1 0x0 DUP1 RETURNDATACOPY RETURNDATASIZE PUSH1 0x0 REVERT JUMPDEST POP POP POP POP POP POP JUMP JUMPDEST PUSH1 0x0 PUSH1 0x20 DUP3 DUP5 SUB SLT ISZERO PUSH2 0x13F JUMPI DUP1 DUP2 REVERT JUMPDEST POP CALLDATALOAD SWAP2 SWAP1 POP JUMP INVALID LOG2 PUSH5 0x6970667358 0x22 SLT KECCAK256 DUP5 0x5C 0xEE SWAP10 0x2D 0xEF 0xD 0xF8 DUP9 KECCAK256 0xC2 0xD4 0x49 PUSH16 0xC824DF0AE85CB8804AA5A567052B71D9 0x2C 0x5D PUSH5 0x736F6C6343 STOP ADDMOD MUL STOP CALLER ",
  "sha1": "c6b920426c78aa4539de564986d219cd703e4297",
  "source": "// SPDX-License-Identifier: MIT\n\npragma solidity >=0.4.22 <0.9.0;\n\n\ninterface AcriaNode {\n    function create_request(bytes8 _requestID, address callback, uint256 _expire, uint32 max_gas) external payable;\n}\n\ncontract ClientExample2 {\n    //The address of the targeted Oracle Node\n    address payable node;\n\n    //last most recent value received via a callback\n    uint256 public lastValue;\n\n    constructor(address payable _node) {\n        node = _node;\n    }\n\n    function callOracle() public payable{\n        //make a call to the Oracle Node and include the fee (all ETH provided)\n        //first parameter is the item requested in this case the USD/GBP exchange rate\n        //the second parameter is the callback address (this contract)\n        //the third is the request expire date. It is expressed in blocks until the request should be dropped.\n        //the fourth is the amount of gas the oracle node should provide for the callback. The higher the requested gas the higher should be the fee provided.\n        AcriaNode(node).create_request{value: msg.value, gas: 100000}(\"USD/GBP\", address(this), 10000, 50000);\n    }\n\n    //the function which gets called by the Oracle Node\n    //it must be named value_callback with exactly one uint256 as parameter\n    function value_callback(uint256 _value) public{\n        //only the Oracle Node is allowed to call this function\n        require(msg.sender == node);\n\n        //update the value\n        lastValue = _value;\n    }\n}",
  "sourcePath": "contracts/contracts/clientContract/clientExample2.sol",
  "type": "contract"
}