{
  "abi": [
    {
      "inputs": [
        {
          "internalType": "address payable",
          "name": "_node",
          "type": "address"
        }
      ],
      "stateMutability": "nonpayable",
      "type": "constructor"
    },
    {
      "inputs": [],
      "name": "_lastValue",
      "outputs": [
        {
          "internalType": "uint256",
          "name": "",
          "type": "uint256"
        }
      ],
      "stateMutability": "view",
      "type": "function"
    },
    {
      "inputs": [],
      "name": "callOracle",
      "outputs": [],
      "stateMutability": "payable",
      "type": "function"
    },
    {
      "inputs": [
        {
          "internalType": "bytes8",
          "name": "field",
          "type": "bytes8"
        },
        {
          "internalType": "uint256",
          "name": "parameter",
          "type": "uint256"
        }
      ],
      "name": "callOracle",
      "outputs": [],
      "stateMutability": "payable",
      "type": "function"
    },
    {
      "inputs": [],
      "name": "callOracleSimple",
      "outputs": [],
      "stateMutability": "payable",
      "type": "function"
    },
    {
      "inputs": [
        {
          "internalType": "bytes8",
          "name": "field",
          "type": "bytes8"
        }
      ],
      "name": "callOracleSimple",
      "outputs": [],
      "stateMutability": "payable",
      "type": "function"
    },
    {
      "inputs": [],
      "name": "counter",
      "outputs": [
        {
          "internalType": "uint256",
          "name": "",
          "type": "uint256"
        }
      ],
      "stateMutability": "view",
      "type": "function"
    },
    {
      "inputs": [
        {
          "internalType": "uint256",
          "name": "",
          "type": "uint256"
        }
      ],
      "name": "lastValue",
      "outputs": [
        {
          "internalType": "uint256",
          "name": "",
          "type": "uint256"
        }
      ],
      "stateMutability": "view",
      "type": "function"
    },
    {
      "inputs": [
        {
          "internalType": "address payable",
          "name": "_node",
          "type": "address"
        }
      ],
      "name": "set_oracle",
      "outputs": [],
      "stateMutability": "nonpayable",
      "type": "function"
    },
    {
      "inputs": [
        {
          "internalType": "uint256",
          "name": "_value",
          "type": "uint256"
        },
        {
          "internalType": "uint256",
          "name": "data",
          "type": "uint256"
        },
        {
          "internalType": "uint256",
          "name": "data_passthrough",
          "type": "uint256"
        }
      ],
      "name": "value_callback",
      "outputs": [],
      "stateMutability": "nonpayable",
      "type": "function"
    },
    {
      "inputs": [
        {
          "internalType": "uint256",
          "name": "_value",
          "type": "uint256"
        }
      ],
      "name": "value_callback",
      "outputs": [],
      "stateMutability": "nonpayable",
      "type": "function"
    }
  ],
  "bytecode": "608060405234801561001057600080fd5b5060405161065438038061065483398101604081905261002f9161005d565b600080546001600160a01b039092166001600160a01b0319928316179055600180549091163317905561008b565b60006020828403121561006e578081fd5b81516001600160a01b0381168114610084578182fd5b9392505050565b6105ba8061009a6000396000f3fe6080604052600436106100915760003560e01c8063764df6fa11610059578063764df6fa1461011e5780637b1b71661461014b5780637ca89bf414610153578063bd4f3b8314610166578063e108ed401461018657610091565b8063175fdc0c1461009657806327c1642e146100b857806339e31edc146100d857806357db1c90146100e057806361bc221a14610108575b600080fd5b3480156100a257600080fd5b506100b66100b1366004610532565b610199565b005b3480156100c457600080fd5b506100b66100d336600461051a565b6101c5565b6100b66101e1565b3480156100ec57600080fd5b506100f660035481565b60405190815260200160405180910390f35b34801561011457600080fd5b506100f660045481565b34801561012a57600080fd5b506100f661013936600461051a565b60026020526000908152604090205481565b6100b6610268565b6100b66101613660046104f1565b610318565b34801561017257600080fd5b506100b66101813660046104a9565b6103cb565b6100b66101943660046104d7565b610404565b6000546001600160a01b031633146101b057600080fd5b60009081526002602052604090209190915550565b6000546001600160a01b031633146101dc57600080fd5b600355565b600054604051638d4b322360e01b81526605553442f4742560cc1b6004820152306024820152612710604482015261c35060648201526001600160a01b0390911690638d4b322390620186a09034906084016000604051808303818589803b15801561024c57600080fd5b5088f1158015610260573d6000803e3d6000fd5b505050505050565b600054600480546040516370762d2f60e01b81526605553442f4742560cc1b92810192909252306024830152612710604483015261c350606483015242608483015260a48201526001600160a01b03909116906370762d2f90620186a090349060c4016000604051808303818589803b1580156102e457600080fd5b5088f11580156102f8573d6000803e3d6000fd5b505050505050600460008154809291906103119061055d565b9190505550565b600054600480546040516370762d2f60e01b81526001600160c01b0319861692810192909252306024830152612710604483015261c35060648301526084820184905260a48201526001600160a01b03909116906370762d2f90620186a090349060c4016000604051808303818589803b15801561039557600080fd5b5088f11580156103a9573d6000803e3d6000fd5b505050505050600460008154809291906103c29061055d565b91905055505050565b6001546001600160a01b031633146103e257600080fd5b600080546001600160a01b0319166001600160a01b0392909216919091179055565b600054604051638d4b322360e01b81526001600160c01b031983166004820152306024820152612710604482015261c35060648201526001600160a01b0390911690638d4b322390620186a09034906084016000604051808303818589803b15801561046f57600080fd5b5088f1158015610483573d6000803e3d6000fd5b50505050505050565b80356001600160c01b0319811681146104a457600080fd5b919050565b6000602082840312156104ba578081fd5b81356001600160a01b03811681146104d0578182fd5b9392505050565b6000602082840312156104e8578081fd5b6104d08261048c565b60008060408385031215610503578081fd5b61050c8361048c565b946020939093013593505050565b60006020828403121561052b578081fd5b5035919050565b600080600060608486031215610546578081fd5b505081359360208301359350604090920135919050565b600060001982141561057d57634e487b7160e01b81526011600452602481fd5b506001019056fea2646970667358221220a3415675290c958357ea75426036af5d62e3b6f6a348e8f07dcd137b0a6f5d4664736f6c63430008020033",
  "bytecodeSha1": "37ccf458e957f97eabd6e94aed809edc0723597e",
  "compiler": {
    "evm_version": "istanbul",
    "optimizer": {
      "enabled": true,
      "runs": 200
    },
    "version": "0.8.2+commit.661d1103"
  },
  "contractName": "ClientExample4",
  "language": "Solidity",
  "natspec": {
    "kind": "dev",
    "methods": {},
    "version": 1
  },
  "opcodes": "PUSH1 0x80 PUSH1 0x40 MSTORE PUSH1 0x4 CALLDATASIZE LT PUSH2 0x91 JUMPI PUSH1 0x0 CALLDATALOAD PUSH1 0xE0 SHR DUP1 PUSH4 0x764DF6FA GT PUSH2 0x59 JUMPI DUP1 PUSH4 0x764DF6FA EQ PUSH2 0x11E JUMPI DUP1 PUSH4 0x7B1B7166 EQ PUSH2 0x14B JUMPI DUP1 PUSH4 0x7CA89BF4 EQ PUSH2 0x153 JUMPI DUP1 PUSH4 0xBD4F3B83 EQ PUSH2 0x166 JUMPI DUP1 PUSH4 0xE108ED40 EQ PUSH2 0x186 JUMPI PUSH2 0x91 JUMP JUMPDEST DUP1 PUSH4 0x175FDC0C EQ PUSH2 0x96 JUMPI DUP1 PUSH4 0x27C1642E EQ PUSH2 0xB8 JUMPI DUP1 PUSH4 0x39E31EDC EQ PUSH2 0xD8 JUMPI DUP1 PUSH4 0x57DB1C90 EQ PUSH2 0xE0 JUMPI DUP1 PUSH4 0x61BC221A EQ PUSH2 0x108 JUMPI JUMPDEST PUSH1 0x0 DUP1 REVERT JUMPDEST CALLVALUE DUP1 ISZERO PUSH2 0xA2 JUMPI PUSH1 0x0 DUP1 REVERT JUMPDEST POP PUSH2 0xB6 PUSH2 0xB1 CALLDATASIZE PUSH1 0x4 PUSH2 0x532 JUMP JUMPDEST PUSH2 0x199 JUMP JUMPDEST STOP JUMPDEST CALLVALUE DUP1 ISZERO PUSH2 0xC4 JUMPI PUSH1 0x0 DUP1 REVERT JUMPDEST POP PUSH2 0xB6 PUSH2 0xD3 CALLDATASIZE PUSH1 0x4 PUSH2 0x51A JUMP JUMPDEST PUSH2 0x1C5 JUMP JUMPDEST PUSH2 0xB6 PUSH2 0x1E1 JUMP JUMPDEST CALLVALUE DUP1 ISZERO PUSH2 0xEC JUMPI PUSH1 0x0 DUP1 REVERT JUMPDEST POP PUSH2 0xF6 PUSH1 0x3 SLOAD DUP2 JUMP JUMPDEST PUSH1 0x40 MLOAD SWAP1 DUP2 MSTORE PUSH1 0x20 ADD PUSH1 0x40 MLOAD DUP1 SWAP2 SUB SWAP1 RETURN JUMPDEST CALLVALUE DUP1 ISZERO PUSH2 0x114 JUMPI PUSH1 0x0 DUP1 REVERT JUMPDEST POP PUSH2 0xF6 PUSH1 0x4 SLOAD DUP2 JUMP JUMPDEST CALLVALUE DUP1 ISZERO PUSH2 0x12A JUMPI PUSH1 0x0 DUP1 REVERT JUMPDEST POP PUSH2 0xF6 PUSH2 0x139 CALLDATASIZE PUSH1 0x4 PUSH2 0x51A JUMP JUMPDEST PUSH1 0x2 PUSH1 0x20 MSTORE PUSH1 0x0 SWAP1 DUP2 MSTORE PUSH1 0x40 SWAP1 KECCAK256 SLOAD DUP2 JUMP JUMPDEST PUSH2 0xB6 PUSH2 0x268 JUMP JUMPDEST PUSH2 0xB6 PUSH2 0x161 CALLDATASIZE PUSH1 0x4 PUSH2 0x4F1 JUMP JUMPDEST PUSH2 0x318 JUMP JUMPDEST CALLVALUE DUP1 ISZERO PUSH2 0x172 JUMPI PUSH1 0x0 DUP1 REVERT JUMPDEST POP PUSH2 0xB6 PUSH2 0x181 CALLDATASIZE PUSH1 0x4 PUSH2 0x4A9 JUMP JUMPDEST PUSH2 0x3CB JUMP JUMPDEST PUSH2 0xB6 PUSH2 0x194 CALLDATASIZE PUSH1 0x4 PUSH2 0x4D7 JUMP JUMPDEST PUSH2 0x404 JUMP JUMPDEST PUSH1 0x0 SLOAD PUSH1 0x1 PUSH1 0x1 PUSH1 0xA0 SHL SUB AND CALLER EQ PUSH2 0x1B0 JUMPI PUSH1 0x0 DUP1 REVERT JUMPDEST PUSH1 0x0 SWAP1 DUP2 MSTORE PUSH1 0x2 PUSH1 0x20 MSTORE PUSH1 0x40 SWAP1 KECCAK256 SWAP2 SWAP1 SWAP2 SSTORE POP JUMP JUMPDEST PUSH1 0x0 SLOAD PUSH1 0x1 PUSH1 0x1 PUSH1 0xA0 SHL SUB AND CALLER EQ PUSH2 0x1DC JUMPI PUSH1 0x0 DUP1 REVERT JUMPDEST PUSH1 0x3 SSTORE JUMP JUMPDEST PUSH1 0x0 SLOAD PUSH1 0x40 MLOAD PUSH4 0x8D4B3223 PUSH1 0xE0 SHL DUP2 MSTORE PUSH7 0x5553442F47425 PUSH1 0xCC SHL PUSH1 0x4 DUP3 ADD MSTORE ADDRESS PUSH1 0x24 DUP3 ADD MSTORE PUSH2 0x2710 PUSH1 0x44 DUP3 ADD MSTORE PUSH2 0xC350 PUSH1 0x64 DUP3 ADD MSTORE PUSH1 0x1 PUSH1 0x1 PUSH1 0xA0 SHL SUB SWAP1 SWAP2 AND SWAP1 PUSH4 0x8D4B3223 SWAP1 PUSH3 0x186A0 SWAP1 CALLVALUE SWAP1 PUSH1 0x84 ADD PUSH1 0x0 PUSH1 0x40 MLOAD DUP1 DUP4 SUB DUP2 DUP6 DUP10 DUP1 EXTCODESIZE ISZERO DUP1 ISZERO PUSH2 0x24C JUMPI PUSH1 0x0 DUP1 REVERT JUMPDEST POP DUP9 CALL ISZERO DUP1 ISZERO PUSH2 0x260 JUMPI RETURNDATASIZE PUSH1 0x0 DUP1 RETURNDATACOPY RETURNDATASIZE PUSH1 0x0 REVERT JUMPDEST POP POP POP POP POP POP JUMP JUMPDEST PUSH1 0x0 SLOAD PUSH1 0x4 DUP1 SLOAD PUSH1 0x40 MLOAD PUSH4 0x70762D2F PUSH1 0xE0 SHL DUP2 MSTORE PUSH7 0x5553442F47425 PUSH1 0xCC SHL SWAP3 DUP2 ADD SWAP3 SWAP1 SWAP3 MSTORE ADDRESS PUSH1 0x24 DUP4 ADD MSTORE PUSH2 0x2710 PUSH1 0x44 DUP4 ADD MSTORE PUSH2 0xC350 PUSH1 0x64 DUP4 ADD MSTORE TIMESTAMP PUSH1 0x84 DUP4 ADD MSTORE PUSH1 0xA4 DUP3 ADD MSTORE PUSH1 0x1 PUSH1 0x1 PUSH1 0xA0 SHL SUB SWAP1 SWAP2 AND SWAP1 PUSH4 0x70762D2F SWAP1 PUSH3 0x186A0 SWAP1 CALLVALUE SWAP1 PUSH1 0xC4 ADD PUSH1 0x0 PUSH1 0x40 MLOAD DUP1 DUP4 SUB DUP2 DUP6 DUP10 DUP1 EXTCODESIZE ISZERO DUP1 ISZERO PUSH2 0x2E4 JUMPI PUSH1 0x0 DUP1 REVERT JUMPDEST POP DUP9 CALL ISZERO DUP1 ISZERO PUSH2 0x2F8 JUMPI RETURNDATASIZE PUSH1 0x0 DUP1 RETURNDATACOPY RETURNDATASIZE PUSH1 0x0 REVERT JUMPDEST POP POP POP POP POP POP PUSH1 0x4 PUSH1 0x0 DUP2 SLOAD DUP1 SWAP3 SWAP2 SWAP1 PUSH2 0x311 SWAP1 PUSH2 0x55D JUMP JUMPDEST SWAP2 SWAP1 POP SSTORE POP JUMP JUMPDEST PUSH1 0x0 SLOAD PUSH1 0x4 DUP1 SLOAD PUSH1 0x40 MLOAD PUSH4 0x70762D2F PUSH1 0xE0 SHL DUP2 MSTORE PUSH1 0x1 PUSH1 0x1 PUSH1 0xC0 SHL SUB NOT DUP7 AND SWAP3 DUP2 ADD SWAP3 SWAP1 SWAP3 MSTORE ADDRESS PUSH1 0x24 DUP4 ADD MSTORE PUSH2 0x2710 PUSH1 0x44 DUP4 ADD MSTORE PUSH2 0xC350 PUSH1 0x64 DUP4 ADD MSTORE PUSH1 0x84 DUP3 ADD DUP5 SWAP1 MSTORE PUSH1 0xA4 DUP3 ADD MSTORE PUSH1 0x1 PUSH1 0x1 PUSH1 0xA0 SHL SUB SWAP1 SWAP2 AND SWAP1 PUSH4 0x70762D2F SWAP1 PUSH3 0x186A0 SWAP1 CALLVALUE SWAP1 PUSH1 0xC4 ADD PUSH1 0x0 PUSH1 0x40 MLOAD DUP1 DUP4 SUB DUP2 DUP6 DUP10 DUP1 EXTCODESIZE ISZERO DUP1 ISZERO PUSH2 0x395 JUMPI PUSH1 0x0 DUP1 REVERT JUMPDEST POP DUP9 CALL ISZERO DUP1 ISZERO PUSH2 0x3A9 JUMPI RETURNDATASIZE PUSH1 0x0 DUP1 RETURNDATACOPY RETURNDATASIZE PUSH1 0x0 REVERT JUMPDEST POP POP POP POP POP POP PUSH1 0x4 PUSH1 0x0 DUP2 SLOAD DUP1 SWAP3 SWAP2 SWAP1 PUSH2 0x3C2 SWAP1 PUSH2 0x55D JUMP JUMPDEST SWAP2 SWAP1 POP SSTORE POP POP POP JUMP JUMPDEST PUSH1 0x1 SLOAD PUSH1 0x1 PUSH1 0x1 PUSH1 0xA0 SHL SUB AND CALLER EQ PUSH2 0x3E2 JUMPI PUSH1 0x0 DUP1 REVERT JUMPDEST PUSH1 0x0 DUP1 SLOAD PUSH1 0x1 PUSH1 0x1 PUSH1 0xA0 SHL SUB NOT AND PUSH1 0x1 PUSH1 0x1 PUSH1 0xA0 SHL SUB SWAP3 SWAP1 SWAP3 AND SWAP2 SWAP1 SWAP2 OR SWAP1 SSTORE JUMP JUMPDEST PUSH1 0x0 SLOAD PUSH1 0x40 MLOAD PUSH4 0x8D4B3223 PUSH1 0xE0 SHL DUP2 MSTORE PUSH1 0x1 PUSH1 0x1 PUSH1 0xC0 SHL SUB NOT DUP4 AND PUSH1 0x4 DUP3 ADD MSTORE ADDRESS PUSH1 0x24 DUP3 ADD MSTORE PUSH2 0x2710 PUSH1 0x44 DUP3 ADD MSTORE PUSH2 0xC350 PUSH1 0x64 DUP3 ADD MSTORE PUSH1 0x1 PUSH1 0x1 PUSH1 0xA0 SHL SUB SWAP1 SWAP2 AND SWAP1 PUSH4 0x8D4B3223 SWAP1 PUSH3 0x186A0 SWAP1 CALLVALUE SWAP1 PUSH1 0x84 ADD PUSH1 0x0 PUSH1 0x40 MLOAD DUP1 DUP4 SUB DUP2 DUP6 DUP10 DUP1 EXTCODESIZE ISZERO DUP1 ISZERO PUSH2 0x46F JUMPI PUSH1 0x0 DUP1 REVERT JUMPDEST POP DUP9 CALL ISZERO DUP1 ISZERO PUSH2 0x483 JUMPI RETURNDATASIZE PUSH1 0x0 DUP1 RETURNDATACOPY RETURNDATASIZE PUSH1 0x0 REVERT JUMPDEST POP POP POP POP POP POP POP JUMP JUMPDEST DUP1 CALLDATALOAD PUSH1 0x1 PUSH1 0x1 PUSH1 0xC0 SHL SUB NOT DUP2 AND DUP2 EQ PUSH2 0x4A4 JUMPI PUSH1 0x0 DUP1 REVERT JUMPDEST SWAP2 SWAP1 POP JUMP JUMPDEST PUSH1 0x0 PUSH1 0x20 DUP3 DUP5 SUB SLT ISZERO PUSH2 0x4BA JUMPI DUP1 DUP2 REVERT JUMPDEST DUP2 CALLDATALOAD PUSH1 0x1 PUSH1 0x1 PUSH1 0xA0 SHL SUB DUP2 AND DUP2 EQ PUSH2 0x4D0 JUMPI DUP2 DUP3 REVERT JUMPDEST SWAP4 SWAP3 POP POP POP JUMP JUMPDEST PUSH1 0x0 PUSH1 0x20 DUP3 DUP5 SUB SLT ISZERO PUSH2 0x4E8 JUMPI DUP1 DUP2 REVERT JUMPDEST PUSH2 0x4D0 DUP3 PUSH2 0x48C JUMP JUMPDEST PUSH1 0x0 DUP1 PUSH1 0x40 DUP4 DUP6 SUB SLT ISZERO PUSH2 0x503 JUMPI DUP1 DUP2 REVERT JUMPDEST PUSH2 0x50C DUP4 PUSH2 0x48C JUMP JUMPDEST SWAP5 PUSH1 0x20 SWAP4 SWAP1 SWAP4 ADD CALLDATALOAD SWAP4 POP POP POP JUMP JUMPDEST PUSH1 0x0 PUSH1 0x20 DUP3 DUP5 SUB SLT ISZERO PUSH2 0x52B JUMPI DUP1 DUP2 REVERT JUMPDEST POP CALLDATALOAD SWAP2 SWAP1 POP JUMP JUMPDEST PUSH1 0x0 DUP1 PUSH1 0x0 PUSH1 0x60 DUP5 DUP7 SUB SLT ISZERO PUSH2 0x546 JUMPI DUP1 DUP2 REVERT JUMPDEST POP POP DUP2 CALLDATALOAD SWAP4 PUSH1 0x20 DUP4 ADD CALLDATALOAD SWAP4 POP PUSH1 0x40 SWAP1 SWAP3 ADD CALLDATALOAD SWAP2 SWAP1 POP JUMP JUMPDEST PUSH1 0x0 PUSH1 0x0 NOT DUP3 EQ ISZERO PUSH2 0x57D JUMPI PUSH4 0x4E487B71 PUSH1 0xE0 SHL DUP2 MSTORE PUSH1 0x11 PUSH1 0x4 MSTORE PUSH1 0x24 DUP2 REVERT JUMPDEST POP PUSH1 0x1 ADD SWAP1 JUMP INVALID LOG2 PUSH5 0x6970667358 0x22 SLT KECCAK256 LOG3 COINBASE JUMP PUSH22 0x290C958357EA75426036AF5D62E3B6F6A348E8F07DCD SGT PUSH28 0xA6F5D4664736F6C6343000802003300000000000000000000000000 ",
  "sha1": "8f28b02a84a1dfc68a42c4726abd62482cafd5fb",
  "source": "// SPDX-License-Identifier: MIT\n\npragma solidity >=0.4.22 <0.9.0;\n\n\ninterface AcriaNode {\n    function create_request_with_data(bytes8 _requestID, address callback, uint256 _expire, uint32 max_gas, uint256 _data, uint256 _data_passthrough) external payable;\n    function create_request(bytes8 _requestID, address callback, uint256 _expire, uint32 max_gas) external payable;\n}\n\ncontract ClientExample4 {\n    //The address of the targeted Oracle Node\n    address payable node;\n    address master;\n\n    //last most recent value received via a callback\n    mapping(uint256 => uint256) public lastValue;\n    \n    //last most recent value received via a callback\n    uint256 public _lastValue;\n    \n    uint256 public counter;\n\n    constructor(address payable _node) {\n        node = _node;\n        master = msg.sender;\n    }\n    \n    function set_oracle(address payable _node) public{\n    \trequire(msg.sender == master);\n    \t\n    \tnode = _node;\n    }\n\n    function callOracle() public payable{\n        //make a call to the Oracle Node and include the fee (all ETH provided)\n        //1. parameter is the item requested in this case the USD/GBP exchange rate\n        //2. parameter is the callback address (this contract)\n        //3. parameter is the request expire date. It is expressed in blocks until the request should be dropped.\n        //4. parameter is the amount of gas the oracle node should provide for the callback. The higher the requested gas the higher should be the fee provided.\n        //5. parameter is the request data which further specifies the data needed (here: the current timestamp)\n        //6. parameter is the passthrough data which will be passed through to the callback function (see third parameter of the callback)\n        AcriaNode(node).create_request_with_data{value: msg.value, gas: 100000}(\"USD/GBP\", address(this), 10000, 50000, block.timestamp, counter);\n        \n        counter++;\n    }\n    \n    function callOracle(bytes8 field, uint256 parameter) public payable{\n        AcriaNode(node).create_request_with_data{value: msg.value, gas: 100000}(field, address(this), 10000, 50000, parameter, counter);\n        \n        counter++;\n    }\n    \n    //the function which gets called by the Oracle Node\n    //it must be named value_callback with exactly three uint256 as parameter\n    function value_callback(uint256 _value, uint256 data, uint256 data_passthrough) public{\n        //only the Oracle Node is allowed to call this function\n        require(msg.sender == node);\n\n        //update the value\n        lastValue[data_passthrough] = _value;\n    }\n    \n    function callOracleSimple() public payable{\n        //make a call to the Oracle Node and include the fee (all ETH provided)\n        //first parameter is the item requested in this case the USD/GBP exchange rate\n        //the second parameter is the callback address (this contract)\n        //the third is the request expire date. It is expressed in blocks until the request should be dropped.\n        //the fourth is the amount of gas the oracle node should provide for the callback. The higher the requested gas the higher should be the fee provided.\n        AcriaNode(node).create_request{value: msg.value, gas: 100000}(\"USD/GBP\", address(this), 10000, 50000);\n    }\n    \n    function callOracleSimple(bytes8 field) public payable{\n        AcriaNode(node).create_request{value: msg.value, gas: 100000}(field, address(this), 10000, 50000);\n    }\n\n    //the function which gets called by the Oracle Node\n    //it must be named value_callback with exactly one uint256 as parameter\n    function value_callback(uint256 _value) public{\n        //only the Oracle Node is allowed to call this function\n        require(msg.sender == node);\n\n        //update the value\n        _lastValue = _value;\n    }\n}\n",
  "sourcePath": "contracts/contracts/clientContract/clientExample4.sol",
  "type": "contract"
}