{
  "contractName": "ExampleClient",
  "abi": [
    {
      "constant": false,
      "inputs": [
        {
          "internalType": "uint256",
          "name": "_value",
          "type": "uint256"
        }
      ],
      "name": "value_callback",
      "outputs": [],
      "payable": false,
      "stateMutability": "nonpayable",
      "type": "function"
    },
    {
      "constant": false,
      "inputs": [
        {
          "internalType": "uint256",
          "name": "_value",
          "type": "uint256"
        }
      ],
      "name": "value_callback_process",
      "outputs": [],
      "payable": false,
      "stateMutability": "nonpayable",
      "type": "function"
    },
    {
      "constant": true,
      "inputs": [],
      "name": "get_lastValue",
      "outputs": [
        {
          "internalType": "uint256",
          "name": "",
          "type": "uint256"
        }
      ],
      "payable": false,
      "stateMutability": "view",
      "type": "function"
    }
  ],
  "bytecode": "0x60806040527325339522df3d615ed729f6c0380b94e93b4eae646000806101000a81548173ffffffffffffffffffffffffffffffffffffffff021916908373ffffffffffffffffffffffffffffffffffffffff16021790555034801561006457600080fd5b50610268806100746000396000f3fe608060405234801561001057600080fd5b50600436106100415760003560e01c806327c1642e146100465780632d4a34ea14610074578063521befb8146100a2575b600080fd5b6100726004803603602081101561005c57600080fd5b81019080803590602001909291905050506100c0565b005b6100a06004803603602081101561008a57600080fd5b810190808035906020019092919050505061021f565b005b6100aa610229565b6040518082815260200191505060405180910390f35b60008060009054906101000a900473ffffffffffffffffffffffffffffffffffffffff16905060003390508173ffffffffffffffffffffffffffffffffffffffff1663ce7e6847826040518263ffffffff1660e01b8152600401808273ffffffffffffffffffffffffffffffffffffffff1673ffffffffffffffffffffffffffffffffffffffff16815260200191505060206040518083038186803b15801561016857600080fd5b505afa15801561017c573d6000803e3d6000fd5b505050506040513d602081101561019257600080fd5b81019080805190602001909291905050501561021a5760008390503073ffffffffffffffffffffffffffffffffffffffff16632d4a34ea826040518263ffffffff1660e01b815260040180828152602001915050600060405180830381600087803b15801561020057600080fd5b505af1158015610214573d6000803e3d6000fd5b50505050505b505050565b8060018190555050565b600060015490509056fea265627a7a723158204c07d6ed870b2bc9182ae54f25f4bc15eabfe5e09ead5e6c6735b3f6c4db437f64736f6c63430005100032",
  "source": "pragma solidity >=0.4.22 <0.9.0;\n\nimport \"../clientContract/client.sol\";\n\ncontract ExampleClient is Client {\n  uint256 lastValue;\n  \n  function value_callback_process(uint256 _value) public {\n     lastValue = _value;\n  }\n  \n  function get_lastValue() public view returns(uint256) {\n    return lastValue;\n    \n  }\n  \n}\n",
  "sourcePath": "/home/a/Documents/acria_contracts/contracts/clientContract/clientExample.sol",
  "compiler": {
    "name": "solc",
    "version": "0.5.16+commit.9c3226ce.Emscripten.clang"
  },
  "schemaVersion": "3.3.3",
  "updatedAt": "2021-02-22T17:51:21.791Z",
  "networkType": "ethereum",
  "devdoc": {
    "methods": {}
  },
  "userdoc": {
    "methods": {}
  }
}