{
  "abi": [
    {
      "inputs": [
        {
          "internalType": "address",
          "name": "main",
          "type": "address"
        }
      ],
      "stateMutability": "nonpayable",
      "type": "constructor"
    },
    {
      "inputs": [],
      "name": "get_lastValue",
      "outputs": [
        {
          "internalType": "uint256",
          "name": "",
          "type": "uint256"
        }
      ],
      "stateMutability": "view",
      "type": "function"
    },
    {
      "inputs": [
        {
          "internalType": "uint256",
          "name": "_value",
          "type": "uint256"
        }
      ],
      "name": "value_callback",
      "outputs": [],
      "stateMutability": "nonpayable",
      "type": "function"
    },
    {
      "inputs": [
        {
          "internalType": "uint256",
          "name": "_value",
          "type": "uint256"
        }
      ],
      "name": "value_callback_process",
      "outputs": [],
      "stateMutability": "nonpayable",
      "type": "function"
    }
  ],
  "bytecode": "608060405234801561001057600080fd5b5060405161026838038061026883398101604081905261002f91610054565b600080546001600160a01b0319166001600160a01b0392909216919091179055610082565b600060208284031215610065578081fd5b81516001600160a01b038116811461007b578182fd5b9392505050565b6101d7806100916000396000f3fe608060405234801561001057600080fd5b50600436106100415760003560e01c806327c1642e146100465780632d4a34ea1461005b578063521befb81461006e575b600080fd5b610059610054366004610189565b610083565b005b610059610069366004610189565b600155565b60015460405190815260200160405180910390f35b60005460405163ce7e684760e01b815233600482018190526001600160a01b039092169190829063ce7e68479060240160206040518083038186803b1580156100cb57600080fd5b505afa1580156100df573d6000803e3d6000fd5b505050506040513d601f19601f820116820180604052508101906101039190610162565b1561015d576040516316a51a7560e11b81526004810184905283903090632d4a34ea90602401600060405180830381600087803b15801561014357600080fd5b505af1158015610157573d6000803e3d6000fd5b50505050505b505050565b600060208284031215610173578081fd5b81518015158114610182578182fd5b9392505050565b60006020828403121561019a578081fd5b503591905056fea26469706673582212206656867a6eec8fcab6ca46dabf4a2ce7b54da6fc7a9333ac210e3db2353dbaa964736f6c63430008020033",
  "bytecodeSha1": "f09c116d7328f7b8a0adb1db57860dc5b01587ba",
  "compiler": {
    "evm_version": "istanbul",
    "optimizer": {
      "enabled": true,
      "runs": 200
    },
    "version": "0.8.2+commit.661d1103"
  },
  "contractName": "ExampleClient",
  "language": "Solidity",
  "natspec": {
    "kind": "dev",
    "methods": {},
    "version": 1
  },
  "opcodes": "PUSH1 0x80 PUSH1 0x40 MSTORE CALLVALUE DUP1 ISZERO PUSH2 0x10 JUMPI PUSH1 0x0 DUP1 REVERT JUMPDEST POP PUSH1 0x4 CALLDATASIZE LT PUSH2 0x41 JUMPI PUSH1 0x0 CALLDATALOAD PUSH1 0xE0 SHR DUP1 PUSH4 0x27C1642E EQ PUSH2 0x46 JUMPI DUP1 PUSH4 0x2D4A34EA EQ PUSH2 0x5B JUMPI DUP1 PUSH4 0x521BEFB8 EQ PUSH2 0x6E JUMPI JUMPDEST PUSH1 0x0 DUP1 REVERT JUMPDEST PUSH2 0x59 PUSH2 0x54 CALLDATASIZE PUSH1 0x4 PUSH2 0x189 JUMP JUMPDEST PUSH2 0x83 JUMP JUMPDEST STOP JUMPDEST PUSH2 0x59 PUSH2 0x69 CALLDATASIZE PUSH1 0x4 PUSH2 0x189 JUMP JUMPDEST PUSH1 0x1 SSTORE JUMP JUMPDEST PUSH1 0x1 SLOAD PUSH1 0x40 MLOAD SWAP1 DUP2 MSTORE PUSH1 0x20 ADD PUSH1 0x40 MLOAD DUP1 SWAP2 SUB SWAP1 RETURN JUMPDEST PUSH1 0x0 SLOAD PUSH1 0x40 MLOAD PUSH4 0xCE7E6847 PUSH1 0xE0 SHL DUP2 MSTORE CALLER PUSH1 0x4 DUP3 ADD DUP2 SWAP1 MSTORE PUSH1 0x1 PUSH1 0x1 PUSH1 0xA0 SHL SUB SWAP1 SWAP3 AND SWAP2 SWAP1 DUP3 SWAP1 PUSH4 0xCE7E6847 SWAP1 PUSH1 0x24 ADD PUSH1 0x20 PUSH1 0x40 MLOAD DUP1 DUP4 SUB DUP2 DUP7 DUP1 EXTCODESIZE ISZERO DUP1 ISZERO PUSH2 0xCB JUMPI PUSH1 0x0 DUP1 REVERT JUMPDEST POP GAS STATICCALL ISZERO DUP1 ISZERO PUSH2 0xDF JUMPI RETURNDATASIZE PUSH1 0x0 DUP1 RETURNDATACOPY RETURNDATASIZE PUSH1 0x0 REVERT JUMPDEST POP POP POP POP PUSH1 0x40 MLOAD RETURNDATASIZE PUSH1 0x1F NOT PUSH1 0x1F DUP3 ADD AND DUP3 ADD DUP1 PUSH1 0x40 MSTORE POP DUP2 ADD SWAP1 PUSH2 0x103 SWAP2 SWAP1 PUSH2 0x162 JUMP JUMPDEST ISZERO PUSH2 0x15D JUMPI PUSH1 0x40 MLOAD PUSH4 0x16A51A75 PUSH1 0xE1 SHL DUP2 MSTORE PUSH1 0x4 DUP2 ADD DUP5 SWAP1 MSTORE DUP4 SWAP1 ADDRESS SWAP1 PUSH4 0x2D4A34EA SWAP1 PUSH1 0x24 ADD PUSH1 0x0 PUSH1 0x40 MLOAD DUP1 DUP4 SUB DUP2 PUSH1 0x0 DUP8 DUP1 EXTCODESIZE ISZERO DUP1 ISZERO PUSH2 0x143 JUMPI PUSH1 0x0 DUP1 REVERT JUMPDEST POP GAS CALL ISZERO DUP1 ISZERO PUSH2 0x157 JUMPI RETURNDATASIZE PUSH1 0x0 DUP1 RETURNDATACOPY RETURNDATASIZE PUSH1 0x0 REVERT JUMPDEST POP POP POP POP POP JUMPDEST POP POP POP JUMP JUMPDEST PUSH1 0x0 PUSH1 0x20 DUP3 DUP5 SUB SLT ISZERO PUSH2 0x173 JUMPI DUP1 DUP2 REVERT JUMPDEST DUP2 MLOAD DUP1 ISZERO ISZERO DUP2 EQ PUSH2 0x182 JUMPI DUP2 DUP3 REVERT JUMPDEST SWAP4 SWAP3 POP POP POP JUMP JUMPDEST PUSH1 0x0 PUSH1 0x20 DUP3 DUP5 SUB SLT ISZERO PUSH2 0x19A JUMPI DUP1 DUP2 REVERT JUMPDEST POP CALLDATALOAD SWAP2 SWAP1 POP JUMP INVALID LOG2 PUSH5 0x6970667358 0x22 SLT KECCAK256 PUSH7 0x56867A6EEC8FCA 0xB6 0xCA CHAINID 0xDA 0xBF 0x4A 0x2C 0xE7 0xB5 0x4D 0xA6 0xFC PUSH27 0x9333AC210E3DB2353DBAA964736F6C634300080200330000000000 ",
  "sha1": "88442cf5e13dcc005a3878da8cf822975e56c0b8",
  "source": "// SPDX-License-Identifier: MIT\n\npragma solidity >=0.4.22 <0.9.0;\n\nimport \"../clientContract/client.sol\";\n\ncontract ExampleClient is Client {\n  uint256 lastValue;\n  \n  constructor(address main) {\n  \tacria_contract = main;\n  }\n  \n  function value_callback_process(uint256 _value) public override {\n     lastValue = _value;\n  }\n  \n  function get_lastValue() public view returns(uint256) {\n    return lastValue;\n    \n  }\n  \n}\n",
  "sourcePath": "contracts/contracts/clientContract/clientExample.sol",
  "type": "contract"
}